{
	"_format": "hh-sol-artifact-1",
	"contractName": "ExtendedERC721",
	"sourceName": "contracts/NFT/ExtendedERC721.sol",
	"abi": [
		{
			"inputs": [
				{
					"internalType": "address",
					"name": "owner_",
					"type": "address"
				},
				{
					"internalType": "address",
					"name": "dercyptMarketplaceAddress_",
					"type": "address"
				},
				{
					"internalType": "string",
					"name": "name_",
					"type": "string"
				},
				{
					"internalType": "string",
					"name": "symbol_",
					"type": "string"
				},
				{
					"internalType": "string",
					"name": "uri_",
					"type": "string"
				},
				{
					"internalType": "uint256",
					"name": "royalty_",
					"type": "uint256"
				},
				{
					"internalType": "address",
					"name": "preSalePaymentToken_",
					"type": "address"
				}
			],
			"stateMutability": "nonpayable",
			"type": "constructor"
		},
		{
			"anonymous": false,
			"inputs": [
				{
					"indexed": true,
					"internalType": "address",
					"name": "owner",
					"type": "address"
				},
				{
					"indexed": true,
					"internalType": "address",
					"name": "approved",
					"type": "address"
				},
				{
					"indexed": true,
					"internalType": "uint256",
					"name": "tokenId",
					"type": "uint256"
				}
			],
			"name": "Approval",
			"type": "event"
		},
		{
			"anonymous": false,
			"inputs": [
				{
					"indexed": true,
					"internalType": "address",
					"name": "owner",
					"type": "address"
				},
				{
					"indexed": true,
					"internalType": "address",
					"name": "operator",
					"type": "address"
				},
				{
					"indexed": false,
					"internalType": "bool",
					"name": "approved",
					"type": "bool"
				}
			],
			"name": "ApprovalForAll",
			"type": "event"
		},
		{
			"anonymous": false,
			"inputs": [
				{
					"indexed": false,
					"internalType": "uint256",
					"name": "",
					"type": "uint256"
				}
			],
			"name": "NewGlobalRoyalty",
			"type": "event"
		},
		{
			"anonymous": false,
			"inputs": [
				{
					"indexed": false,
					"internalType": "uint256",
					"name": "_eventId",
					"type": "uint256"
				},
				{
					"indexed": false,
					"internalType": "uint256",
					"name": "_maxTokensPerWallet",
					"type": "uint256"
				},
				{
					"indexed": false,
					"internalType": "uint256",
					"name": "_startTime",
					"type": "uint256"
				},
				{
					"indexed": false,
					"internalType": "uint256",
					"name": "_endTime",
					"type": "uint256"
				},
				{
					"indexed": false,
					"internalType": "uint256",
					"name": "_maxTokensForTier",
					"type": "uint256"
				},
				{
					"indexed": false,
					"internalType": "uint256",
					"name": "_price",
					"type": "uint256"
				},
				{
					"indexed": false,
					"internalType": "bool",
					"name": "_whiteList",
					"type": "bool"
				}
			],
			"name": "NewPreSale",
			"type": "event"
		},
		{
			"anonymous": false,
			"inputs": [
				{
					"indexed": false,
					"internalType": "address",
					"name": "",
					"type": "address"
				}
			],
			"name": "NewPreSalePaymentToken",
			"type": "event"
		},
		{
			"anonymous": false,
			"inputs": [
				{
					"indexed": false,
					"internalType": "address",
					"name": "",
					"type": "address"
				}
			],
			"name": "NewRoyaltyReceiver",
			"type": "event"
		},
		{
			"anonymous": false,
			"inputs": [
				{
					"indexed": false,
					"internalType": "uint256",
					"name": "royalty",
					"type": "uint256"
				},
				{
					"indexed": false,
					"internalType": "uint256",
					"name": "tokenId",
					"type": "uint256"
				}
			],
			"name": "NewTokenRoyalty",
			"type": "event"
		},
		{
			"anonymous": false,
			"inputs": [
				{
					"indexed": true,
					"internalType": "address",
					"name": "previousOwner",
					"type": "address"
				},
				{
					"indexed": true,
					"internalType": "address",
					"name": "newOwner",
					"type": "address"
				}
			],
			"name": "OwnershipTransferred",
			"type": "event"
		},
		{
			"anonymous": false,
			"inputs": [
				{
					"indexed": false,
					"internalType": "uint256",
					"name": "eventId",
					"type": "uint256"
				},
				{
					"indexed": false,
					"internalType": "uint256",
					"name": "tokenId",
					"type": "uint256"
				},
				{
					"indexed": false,
					"internalType": "uint256",
					"name": "price",
					"type": "uint256"
				}
			],
			"name": "SpecialPrice",
			"type": "event"
		},
		{
			"anonymous": false,
			"inputs": [
				{
					"indexed": false,
					"internalType": "address",
					"name": "userAddress",
					"type": "address"
				},
				{
					"indexed": false,
					"internalType": "uint256",
					"name": "tokenId",
					"type": "uint256"
				}
			],
			"name": "TokenReserve",
			"type": "event"
		},
		{
			"anonymous": false,
			"inputs": [
				{
					"indexed": true,
					"internalType": "address",
					"name": "from",
					"type": "address"
				},
				{
					"indexed": true,
					"internalType": "address",
					"name": "to",
					"type": "address"
				},
				{
					"indexed": true,
					"internalType": "uint256",
					"name": "tokenId",
					"type": "uint256"
				}
			],
			"name": "Transfer",
			"type": "event"
		},
		{
			"anonymous": false,
			"inputs": [
				{
					"indexed": false,
					"internalType": "uint256",
					"name": "_eventId",
					"type": "uint256"
				},
				{
					"indexed": false,
					"internalType": "uint256",
					"name": "_maxTokensPerWallet",
					"type": "uint256"
				},
				{
					"indexed": false,
					"internalType": "uint256",
					"name": "_startTime",
					"type": "uint256"
				},
				{
					"indexed": false,
					"internalType": "uint256",
					"name": "_endTime",
					"type": "uint256"
				},
				{
					"indexed": false,
					"internalType": "uint256",
					"name": "_maxTokensForTier",
					"type": "uint256"
				},
				{
					"indexed": false,
					"internalType": "uint256",
					"name": "_price",
					"type": "uint256"
				},
				{
					"indexed": false,
					"internalType": "bool",
					"name": "_whiteList",
					"type": "bool"
				}
			],
			"name": "UpdatedPreSale",
			"type": "event"
		},
		{
			"anonymous": false,
			"inputs": [
				{
					"indexed": false,
					"internalType": "string",
					"name": "_uri",
					"type": "string"
				}
			],
			"name": "UpdatedURI",
			"type": "event"
		},
		{
			"anonymous": false,
			"inputs": [
				{
					"indexed": false,
					"internalType": "uint256",
					"name": "eventId",
					"type": "uint256"
				},
				{
					"indexed": false,
					"internalType": "address",
					"name": "buyer",
					"type": "address"
				}
			],
			"name": "Whitelisted",
			"type": "event"
		},
		{
			"inputs": [
				{
					"internalType": "uint256",
					"name": "eventId",
					"type": "uint256"
				},
				{
					"internalType": "address",
					"name": "buyer",
					"type": "address"
				}
			],
			"name": "addToWhitelist",
			"outputs": [],
			"stateMutability": "nonpayable",
			"type": "function"
		},
		{
			"inputs": [
				{
					"internalType": "address",
					"name": "to",
					"type": "address"
				},
				{
					"internalType": "uint256",
					"name": "tokenId",
					"type": "uint256"
				}
			],
			"name": "approve",
			"outputs": [],
			"stateMutability": "nonpayable",
			"type": "function"
		},
		{
			"inputs": [
				{
					"internalType": "address",
					"name": "owner",
					"type": "address"
				}
			],
			"name": "balanceOf",
			"outputs": [
				{
					"internalType": "uint256",
					"name": "",
					"type": "uint256"
				}
			],
			"stateMutability": "view",
			"type": "function"
		},
		{
			"inputs": [],
			"name": "baseURI",
			"outputs": [
				{
					"internalType": "string",
					"name": "",
					"type": "string"
				}
			],
			"stateMutability": "view",
			"type": "function"
		},
		{
			"inputs": [
				{
					"internalType": "uint256",
					"name": "eventId",
					"type": "uint256"
				},
				{
					"internalType": "address",
					"name": "buyer",
					"type": "address"
				}
			],
			"name": "countTokensBought",
			"outputs": [],
			"stateMutability": "nonpayable",
			"type": "function"
		},
		{
			"inputs": [
				{
					"internalType": "uint256",
					"name": "_maxTokensPerWallet",
					"type": "uint256"
				},
				{
					"internalType": "uint256",
					"name": "_startTime",
					"type": "uint256"
				},
				{
					"internalType": "uint256",
					"name": "_endTime",
					"type": "uint256"
				},
				{
					"internalType": "uint256",
					"name": "_maxTokensForEvent",
					"type": "uint256"
				},
				{
					"internalType": "uint256",
					"name": "_price",
					"type": "uint256"
				},
				{
					"internalType": "bool",
					"name": "_whiteList",
					"type": "bool"
				}
			],
			"name": "createPreSaleEvent",
			"outputs": [],
			"stateMutability": "nonpayable",
			"type": "function"
		},
		{
			"inputs": [],
			"name": "decryptMarketplaceAddress",
			"outputs": [
				{
					"internalType": "address",
					"name": "",
					"type": "address"
				}
			],
			"stateMutability": "view",
			"type": "function"
		},
		{
			"inputs": [],
			"name": "disableRoyalty",
			"outputs": [],
			"stateMutability": "nonpayable",
			"type": "function"
		},
		{
			"inputs": [],
			"name": "disableRoyaltyDistribution",
			"outputs": [],
			"stateMutability": "nonpayable",
			"type": "function"
		},
		{
			"inputs": [],
			"name": "enableRoyalty",
			"outputs": [],
			"stateMutability": "nonpayable",
			"type": "function"
		},
		{
			"inputs": [],
			"name": "enableRoyaltyDistribution",
			"outputs": [],
			"stateMutability": "nonpayable",
			"type": "function"
		},
		{
			"inputs": [
				{
					"internalType": "uint256",
					"name": "tokenId",
					"type": "uint256"
				}
			],
			"name": "exists",
			"outputs": [
				{
					"internalType": "bool",
					"name": "",
					"type": "bool"
				}
			],
			"stateMutability": "view",
			"type": "function"
		},
		{
			"inputs": [
				{
					"internalType": "bool",
					"name": "_forbidden",
					"type": "bool"
				}
			],
			"name": "forbidToTradeOnOtherMarketplaces",
			"outputs": [],
			"stateMutability": "nonpayable",
			"type": "function"
		},
		{
			"inputs": [
				{
					"internalType": "uint256",
					"name": "tokenId",
					"type": "uint256"
				}
			],
			"name": "getApproved",
			"outputs": [
				{
					"internalType": "address",
					"name": "",
					"type": "address"
				}
			],
			"stateMutability": "view",
			"type": "function"
		},
		{
			"inputs": [],
			"name": "getDefaultRoyaltyDistribution",
			"outputs": [
				{
					"components": [
						{
							"internalType": "address",
							"name": "collaborator",
							"type": "address"
						},
						{
							"internalType": "uint256",
							"name": "share",
							"type": "uint256"
						}
					],
					"internalType": "struct RoyaltyDistribution.RoyaltyShare[]",
					"name": "",
					"type": "tuple[]"
				}
			],
			"stateMutability": "view",
			"type": "function"
		},
		{
			"inputs": [
				{
					"internalType": "address",
					"name": "buyer",
					"type": "address"
				},
				{
					"internalType": "uint256",
					"name": "tokenId",
					"type": "uint256"
				},
				{
					"internalType": "uint256",
					"name": "eventId",
					"type": "uint256"
				}
			],
			"name": "getTokenInfo",
			"outputs": [
				{
					"internalType": "uint256",
					"name": "tokenPrice",
					"type": "uint256"
				},
				{
					"internalType": "address",
					"name": "paymentToken",
					"type": "address"
				},
				{
					"internalType": "bool",
					"name": "availableForBuyer",
					"type": "bool"
				}
			],
			"stateMutability": "view",
			"type": "function"
		},
		{
			"inputs": [
				{
					"internalType": "uint256",
					"name": "tokenId",
					"type": "uint256"
				}
			],
			"name": "getTokenRoyaltyDistribution",
			"outputs": [
				{
					"components": [
						{
							"internalType": "address",
							"name": "collaborator",
							"type": "address"
						},
						{
							"internalType": "uint256",
							"name": "share",
							"type": "uint256"
						}
					],
					"internalType": "struct RoyaltyDistribution.RoyaltyShare[]",
					"name": "",
					"type": "tuple[]"
				}
			],
			"stateMutability": "view",
			"type": "function"
		},
		{
			"inputs": [],
			"name": "globalRoyalty",
			"outputs": [
				{
					"internalType": "uint256",
					"name": "",
					"type": "uint256"
				}
			],
			"stateMutability": "view",
			"type": "function"
		},
		{
			"inputs": [],
			"name": "globalRoyaltyEnabled",
			"outputs": [
				{
					"internalType": "bool",
					"name": "",
					"type": "bool"
				}
			],
			"stateMutability": "view",
			"type": "function"
		},
		{
			"inputs": [
				{
					"internalType": "address",
					"name": "",
					"type": "address"
				},
				{
					"internalType": "uint256",
					"name": "",
					"type": "uint256"
				}
			],
			"name": "isAddressWhitelisted",
			"outputs": [
				{
					"internalType": "bool",
					"name": "",
					"type": "bool"
				}
			],
			"stateMutability": "view",
			"type": "function"
		},
		{
			"inputs": [
				{
					"internalType": "address",
					"name": "owner",
					"type": "address"
				},
				{
					"internalType": "address",
					"name": "operator",
					"type": "address"
				}
			],
			"name": "isApprovedForAll",
			"outputs": [
				{
					"internalType": "bool",
					"name": "",
					"type": "bool"
				}
			],
			"stateMutability": "view",
			"type": "function"
		},
		{
			"inputs": [
				{
					"internalType": "address",
					"name": "to",
					"type": "address"
				},
				{
					"internalType": "uint256",
					"name": "tokenId",
					"type": "uint256"
				}
			],
			"name": "lazyMint",
			"outputs": [],
			"stateMutability": "nonpayable",
			"type": "function"
		},
		{
			"inputs": [
				{
					"internalType": "address",
					"name": "to",
					"type": "address"
				},
				{
					"internalType": "uint256",
					"name": "tokenId",
					"type": "uint256"
				}
			],
			"name": "mint",
			"outputs": [],
			"stateMutability": "nonpayable",
			"type": "function"
		},
		{
			"inputs": [],
			"name": "name",
			"outputs": [
				{
					"internalType": "string",
					"name": "",
					"type": "string"
				}
			],
			"stateMutability": "view",
			"type": "function"
		},
		{
			"inputs": [],
			"name": "owner",
			"outputs": [
				{
					"internalType": "address",
					"name": "",
					"type": "address"
				}
			],
			"stateMutability": "view",
			"type": "function"
		},
		{
			"inputs": [
				{
					"internalType": "uint256",
					"name": "tokenId",
					"type": "uint256"
				}
			],
			"name": "ownerOf",
			"outputs": [
				{
					"internalType": "address",
					"name": "",
					"type": "address"
				}
			],
			"stateMutability": "view",
			"type": "function"
		},
		{
			"inputs": [
				{
					"internalType": "uint256",
					"name": "",
					"type": "uint256"
				}
			],
			"name": "preSaleEventInfo",
			"outputs": [
				{
					"internalType": "uint256",
					"name": "maxTokensPerWallet",
					"type": "uint256"
				},
				{
					"internalType": "uint256",
					"name": "startTime",
					"type": "uint256"
				},
				{
					"internalType": "uint256",
					"name": "endTime",
					"type": "uint256"
				},
				{
					"internalType": "uint256",
					"name": "maxTokensForEvent",
					"type": "uint256"
				},
				{
					"internalType": "uint256",
					"name": "tokensSold",
					"type": "uint256"
				},
				{
					"internalType": "uint256",
					"name": "price",
					"type": "uint256"
				},
				{
					"internalType": "bool",
					"name": "whiteList",
					"type": "bool"
				}
			],
			"stateMutability": "view",
			"type": "function"
		},
		{
			"inputs": [],
			"name": "preSalePaymentToken",
			"outputs": [
				{
					"internalType": "address",
					"name": "",
					"type": "address"
				}
			],
			"stateMutability": "view",
			"type": "function"
		},
		{
			"inputs": [],
			"name": "renounceOwnership",
			"outputs": [],
			"stateMutability": "nonpayable",
			"type": "function"
		},
		{
			"inputs": [
				{
					"internalType": "address",
					"name": "userAddress",
					"type": "address"
				},
				{
					"internalType": "uint256",
					"name": "tokenId",
					"type": "uint256"
				}
			],
			"name": "reserveToken",
			"outputs": [],
			"stateMutability": "nonpayable",
			"type": "function"
		},
		{
			"inputs": [
				{
					"internalType": "uint256",
					"name": "",
					"type": "uint256"
				}
			],
			"name": "reservedToken",
			"outputs": [
				{
					"internalType": "address",
					"name": "",
					"type": "address"
				}
			],
			"stateMutability": "view",
			"type": "function"
		},
		{
			"inputs": [],
			"name": "royaltyDistributionEnabled",
			"outputs": [
				{
					"internalType": "bool",
					"name": "",
					"type": "bool"
				}
			],
			"stateMutability": "view",
			"type": "function"
		},
		{
			"inputs": [
				{
					"internalType": "uint256",
					"name": "_tokenId",
					"type": "uint256"
				},
				{
					"internalType": "uint256",
					"name": "_salePrice",
					"type": "uint256"
				}
			],
			"name": "royaltyInfo",
			"outputs": [
				{
					"internalType": "address",
					"name": "receiver",
					"type": "address"
				},
				{
					"internalType": "uint256",
					"name": "royaltyAmount",
					"type": "uint256"
				}
			],
			"stateMutability": "view",
			"type": "function"
		},
		{
			"inputs": [],
			"name": "royaltyReceiver",
			"outputs": [
				{
					"internalType": "address",
					"name": "",
					"type": "address"
				}
			],
			"stateMutability": "view",
			"type": "function"
		},
		{
			"inputs": [
				{
					"internalType": "address",
					"name": "from",
					"type": "address"
				},
				{
					"internalType": "address",
					"name": "to",
					"type": "address"
				},
				{
					"internalType": "uint256",
					"name": "tokenId",
					"type": "uint256"
				}
			],
			"name": "safeTransferFrom",
			"outputs": [],
			"stateMutability": "nonpayable",
			"type": "function"
		},
		{
			"inputs": [
				{
					"internalType": "address",
					"name": "from",
					"type": "address"
				},
				{
					"internalType": "address",
					"name": "to",
					"type": "address"
				},
				{
					"internalType": "uint256",
					"name": "tokenId",
					"type": "uint256"
				},
				{
					"internalType": "bytes",
					"name": "_data",
					"type": "bytes"
				}
			],
			"name": "safeTransferFrom",
			"outputs": [],
			"stateMutability": "nonpayable",
			"type": "function"
		},
		{
			"inputs": [
				{
					"internalType": "address",
					"name": "operator",
					"type": "address"
				},
				{
					"internalType": "bool",
					"name": "approved",
					"type": "bool"
				}
			],
			"name": "setApprovalForAll",
			"outputs": [],
			"stateMutability": "nonpayable",
			"type": "function"
		},
		{
			"inputs": [
				{
					"internalType": "uint256",
					"name": "tokenId",
					"type": "uint256"
				},
				{
					"internalType": "string",
					"name": "_customUri",
					"type": "string"
				}
			],
			"name": "setCustomTokenUri",
			"outputs": [],
			"stateMutability": "nonpayable",
			"type": "function"
		},
		{
			"inputs": [
				{
					"internalType": "address[]",
					"name": "collaborators",
					"type": "address[]"
				},
				{
					"internalType": "uint256[]",
					"name": "shares",
					"type": "uint256[]"
				}
			],
			"name": "setDefaultRoyaltyDistribution",
			"outputs": [],
			"stateMutability": "nonpayable",
			"type": "function"
		},
		{
			"inputs": [
				{
					"internalType": "uint256",
					"name": "_royalty",
					"type": "uint256"
				}
			],
			"name": "setGlobalRoyalty",
			"outputs": [],
			"stateMutability": "nonpayable",
			"type": "function"
		},
		{
			"inputs": [
				{
					"internalType": "address",
					"name": "_preSalePaymentToken",
					"type": "address"
				}
			],
			"name": "setPreSalePaymentToken",
			"outputs": [],
			"stateMutability": "nonpayable",
			"type": "function"
		},
		{
			"inputs": [
				{
					"internalType": "address",
					"name": "newRoyaltyReceiver",
					"type": "address"
				}
			],
			"name": "setRoyaltyReceiver",
			"outputs": [],
			"stateMutability": "nonpayable",
			"type": "function"
		},
		{
			"inputs": [
				{
					"internalType": "uint256",
					"name": "eventId",
					"type": "uint256"
				},
				{
					"internalType": "uint256",
					"name": "tokenId",
					"type": "uint256"
				},
				{
					"internalType": "uint256",
					"name": "price",
					"type": "uint256"
				}
			],
			"name": "setSpecialPriceForToken",
			"outputs": [],
			"stateMutability": "nonpayable",
			"type": "function"
		},
		{
			"inputs": [
				{
					"internalType": "uint256",
					"name": "_royalty",
					"type": "uint256"
				},
				{
					"internalType": "uint256",
					"name": "_tokenId",
					"type": "uint256"
				}
			],
			"name": "setTokenRoyalty",
			"outputs": [],
			"stateMutability": "nonpayable",
			"type": "function"
		},
		{
			"inputs": [
				{
					"internalType": "address[]",
					"name": "collaborators",
					"type": "address[]"
				},
				{
					"internalType": "uint256[]",
					"name": "shares",
					"type": "uint256[]"
				},
				{
					"internalType": "uint256",
					"name": "tokenId",
					"type": "uint256"
				}
			],
			"name": "setTokenRoyaltyDistribution",
			"outputs": [],
			"stateMutability": "nonpayable",
			"type": "function"
		},
		{
			"inputs": [
				{
					"internalType": "string",
					"name": "uri_",
					"type": "string"
				}
			],
			"name": "setURI",
			"outputs": [],
			"stateMutability": "nonpayable",
			"type": "function"
		},
		{
			"inputs": [
				{
					"internalType": "uint256",
					"name": "",
					"type": "uint256"
				},
				{
					"internalType": "uint256",
					"name": "",
					"type": "uint256"
				}
			],
			"name": "specialPrice",
			"outputs": [
				{
					"internalType": "uint256",
					"name": "",
					"type": "uint256"
				}
			],
			"stateMutability": "view",
			"type": "function"
		},
		{
			"inputs": [
				{
					"internalType": "bytes4",
					"name": "interfaceId",
					"type": "bytes4"
				}
			],
			"name": "supportsInterface",
			"outputs": [
				{
					"internalType": "bool",
					"name": "",
					"type": "bool"
				}
			],
			"stateMutability": "view",
			"type": "function"
		},
		{
			"inputs": [],
			"name": "symbol",
			"outputs": [
				{
					"internalType": "string",
					"name": "",
					"type": "string"
				}
			],
			"stateMutability": "view",
			"type": "function"
		},
		{
			"inputs": [
				{
					"internalType": "uint256",
					"name": "",
					"type": "uint256"
				}
			],
			"name": "tokenRoyalty",
			"outputs": [
				{
					"internalType": "uint256",
					"name": "",
					"type": "uint256"
				}
			],
			"stateMutability": "view",
			"type": "function"
		},
		{
			"inputs": [
				{
					"internalType": "uint256",
					"name": "tokenId",
					"type": "uint256"
				}
			],
			"name": "tokenURI",
			"outputs": [
				{
					"internalType": "string",
					"name": "",
					"type": "string"
				}
			],
			"stateMutability": "view",
			"type": "function"
		},
		{
			"inputs": [
				{
					"internalType": "address",
					"name": "from",
					"type": "address"
				},
				{
					"internalType": "address",
					"name": "to",
					"type": "address"
				},
				{
					"internalType": "uint256",
					"name": "tokenId",
					"type": "uint256"
				}
			],
			"name": "transferFrom",
			"outputs": [],
			"stateMutability": "nonpayable",
			"type": "function"
		},
		{
			"inputs": [
				{
					"internalType": "address",
					"name": "newOwner",
					"type": "address"
				}
			],
			"name": "transferOwnership",
			"outputs": [],
			"stateMutability": "nonpayable",
			"type": "function"
		},
		{
			"inputs": [
				{
					"internalType": "uint256",
					"name": "_eventId",
					"type": "uint256"
				},
				{
					"internalType": "uint256",
					"name": "_maxTokensPerWallet",
					"type": "uint256"
				},
				{
					"internalType": "uint256",
					"name": "_startTime",
					"type": "uint256"
				},
				{
					"internalType": "uint256",
					"name": "_endTime",
					"type": "uint256"
				},
				{
					"internalType": "uint256",
					"name": "_maxTokensForEvent",
					"type": "uint256"
				},
				{
					"internalType": "uint256",
					"name": "_price",
					"type": "uint256"
				},
				{
					"internalType": "bool",
					"name": "_whiteList",
					"type": "bool"
				}
			],
			"name": "updatePreSaleEvent",
			"outputs": [],
			"stateMutability": "nonpayable",
			"type": "function"
		}
	],
	"bytecode": "0x60806040526007805461ffff60a01b191661010160a01b1790553480156200002657600080fd5b5060405162003aba38038062003aba83398101604081905262000049916200039c565b86868686868683836200005c3362000101565b81516200007190600d90602085019062000226565b5080516200008790600e90602084019062000226565b505082516200009f9150601390602085019062000226565b506008819055620000b08662000151565b5050600c80546001600160a01b039586166001600160a01b031991821617909155601480549486169482169490941790935550506007805493909216921691909117905550620004bf945050505050565b600080546001600160a01b038381166001600160a01b0319831681178455604051919092169283917f8be0079c531659141344cd1fd0a4f28419497f9722a3daafe3b4186f6b6457e09190a35050565b6000546001600160a01b03163314620001b15760405162461bcd60e51b815260206004820181905260248201527f4f776e61626c653a2063616c6c6572206973206e6f7420746865206f776e657260448201526064015b60405180910390fd5b6001600160a01b038116620002185760405162461bcd60e51b815260206004820152602660248201527f4f776e61626c653a206e6577206f776e657220697320746865207a65726f206160448201526564647265737360d01b6064820152608401620001a8565b620002238162000101565b50565b82805462000234906200046c565b90600052602060002090601f016020900481019282620002585760008555620002a3565b82601f106200027357805160ff1916838001178555620002a3565b82800160010185558215620002a3579182015b82811115620002a357825182559160200191906001019062000286565b50620002b1929150620002b5565b5090565b5b80821115620002b15760008155600101620002b6565b80516001600160a01b0381168114620002e457600080fd5b919050565b600082601f830112620002fa578081fd5b81516001600160401b0380821115620003175762000317620004a9565b604051601f8301601f19908116603f01168101908282118183101715620003425762000342620004a9565b816040528381526020925086838588010111156200035e578485fd5b8491505b8382101562000381578582018301518183018401529082019062000362565b838211156200039257848385830101525b9695505050505050565b600080600080600080600060e0888a031215620003b7578283fd5b620003c288620002cc565b9650620003d260208901620002cc565b60408901519096506001600160401b0380821115620003ef578485fd5b620003fd8b838c01620002e9565b965060608a015191508082111562000413578485fd5b620004218b838c01620002e9565b955060808a015191508082111562000437578485fd5b50620004468a828b01620002e9565b93505060a088015191506200045e60c08901620002cc565b905092959891949750929550565b600181811c908216806200048157607f821691505b60208210811415620004a357634e487b7160e01b600052602260045260246000fd5b50919050565b634e487b7160e01b600052604160045260246000fd5b6135eb80620004cf6000396000f3fe608060405234801561001057600080fd5b50600436106103415760003560e01c80636352211e116101b8578063a22cb46511610104578063da536f5a116100a2578063ee2dd6d11161007c578063ee2dd6d1146107f6578063f2fde38b146107fe578063f8ef6b7114610811578063fba52c241461081957610341565b8063da536f5a1461075c578063e8c15205146107a6578063e985e9c5146107ba57610341565b8063b88d4fde116100de578063b88d4fde14610710578063bc189d3814610723578063c87b56dd14610736578063d63622f11461074957610341565b8063a22cb465146106d7578063ab276968146106ea578063b0de83a3146106fd57610341565b80638da5cb5b116101715780639a941f5c1161014b5780639a941f5c146106865780639fbc8713146106b45780639fc28f81146106c7578063a0c7489d146106cf57610341565b80638da5cb5b1461065a5780638dc251e31461066b57806395d89b411461067e57610341565b80636352211e146105e65780636c0360eb146105f957806370a0823114610601578063715018a61461061457806373ba02891461061c578063796578701461064757610341565b80632d78546111610292578063483b81ef116102305780634e6836ab1161020a5780634e6836ab1461059a5780634f558e79146105ad5780635219e8a2146105c057806359112bb3146105d357610341565b8063483b81ef1461055557806349d721471461055e5780634e0b0ed61461057157610341565b806340c10f191161026c57806340c10f191461050757806342842e0e1461051a578063445375201461052d57806348375f841461053557610341565b80632d785461146104ce5780632fa33f47146104e1578063336b44bb146104f457610341565b8063095ea7b3116102ff5780631b267eab116102d95780631b267eab146104485780631ff4a4201461045b57806323b872dd146104895780632a55205a1461049c57610341565b8063095ea7b3146103ea5780630f65728a146103fd5780631763b4a81461043557610341565b8062e12fe214610346578063012e46b61461035b57806301ffc9a71461038457806302fe53051461039757806306fdde03146103aa578063081812fc146103bf575b600080fd5b6103596103543660046131b4565b61082c565b005b60075461036f90600160a81b900460ff1681565b60405190151581526020015b60405180910390f35b61036f6103923660046130a9565b61087b565b6103596103a53660046130e1565b6108a8565b6103b2610920565b60405161037b919061337a565b6103d26103cd366004613114565b6109b2565b6040516001600160a01b03909116815260200161037b565b6103596103f8366004612f74565b610a47565b61041061040b366004612f9d565b610b5d565b604080519384526001600160a01b03909216602084015215159082015260600161037b565b610359610443366004612fcf565b610e7c565b61035961045636600461314e565b611073565b61047b610469366004613114565b60096020526000908152604090205481565b60405190815260200161037b565b610359610497366004612e97565b6110bc565b6104af6104aa366004613193565b6110ed565b604080516001600160a01b03909316835260208301919091520161037b565b6103596104dc36600461312c565b611187565b6103596104ef36600461322f565b61125a565b610359610502366004612f74565b611504565b610359610515366004612f74565b61155b565b610359610528366004612e97565b611585565b6103596115a0565b610548610543366004613114565b6115df565b60405161037b9190613322565b61047b60085481565b6104af61056c366004613193565b611667565b6103d261057f366004613114565b6001602052600090815260409020546001600160a01b031681565b6103596105a8366004613038565b6116ad565b61036f6105bb366004613114565b6118c1565b6103596105ce366004612e4b565b6118e0565b6014546103d2906001600160a01b031681565b6103d26105f4366004613114565b61192c565b6103b26119a3565b61047b61060f366004612e4b565b6119b2565b610359611a39565b61047b61062a366004613193565b600260209081526000928352604080842090915290825290205481565b610359610655366004612f74565b611a6f565b6000546001600160a01b03166103d2565b610359610679366004612e4b565b611ac7565b6103b2611bc7565b61036f610694366004612f74565b600560209081526000928352604080842090915290825290205460ff1681565b600c546103d2906001600160a01b031681565b610548611bd6565b610359611c4b565b6103596106e5366004612f4b565b611c8a565b6103596106f836600461312c565b611c95565b61035961070b366004613114565b611ce8565b61035961071e366004612ed2565b611d5f565b610359610731366004613193565b611d97565b6103b2610744366004613114565b611e1a565b6103596107573660046131df565b611ee5565b61076f61076a366004613114565b612128565b604080519788526020880196909652948601939093526060850191909152608084015260a0830152151560c082015260e00161037b565b60075461036f90600160a01b900460ff1681565b61036f6107c8366004612e65565b6001600160a01b03918216600090815260126020908152604080832093909416825291909152205460ff1690565b61035961217a565b61035961080c366004612e4b565b6121b3565b61035961224e565b6007546103d2906001600160a01b031681565b6000546001600160a01b0316331461085f5760405162461bcd60e51b8152600401610856906133df565b60405180910390fd5b6000928352600260209081526040808520938552929052912055565b60006001600160e01b031982166352210df160e11b14806108a057506108a082612287565b90505b919050565b6000546001600160a01b031633146108d25760405162461bcd60e51b8152600401610856906133df565b80516108e5906013906020840190612c6c565b507fbabd00c52f3ac8b66511ad0c5d9680f0417ad32bf6c8fede4cb2d45820353bc581604051610915919061337a565b60405180910390a150565b6060600d805461092f906134f3565b80601f016020809104026020016040519081016040528092919081815260200182805461095b906134f3565b80156109a85780601f1061097d576101008083540402835291602001916109a8565b820191906000526020600020905b81548152906001019060200180831161098b57829003601f168201915b5050505050905090565b6000818152600f60205260408120546001600160a01b0316610a2b5760405162461bcd60e51b815260206004820152602c60248201527f4552433732313a20617070726f76656420717565727920666f72206e6f6e657860448201526b34b9ba32b73a103a37b5b2b760a11b6064820152608401610856565b506000908152601160205260409020546001600160a01b031690565b6000610a528261192c565b9050806001600160a01b0316836001600160a01b03161415610ac05760405162461bcd60e51b815260206004820152602160248201527f4552433732313a20617070726f76616c20746f2063757272656e74206f776e656044820152603960f91b6064820152608401610856565b336001600160a01b0382161480610adc5750610adc81336107c8565b610b4e5760405162461bcd60e51b815260206004820152603860248201527f4552433732313a20617070726f76652063616c6c6572206973206e6f74206f7760448201527f6e6572206e6f7220617070726f76656420666f7220616c6c00000000000000006064820152608401610856565b610b5883836122e2565b505050565b60008060008060068581548110610b8457634e487b7160e01b600052603260045260246000fd5b60009182526020808320600560079093020191909101548783526002825260408084208a855290925291205490915060019015610bd85760008681526002602090815260408083208a845290915290205491505b60068681548110610bf957634e487b7160e01b600052603260045260246000fd5b600091825260209091206006600790920201015460ff168015610c4057506001600160a01b038816600090815260056020908152604080832089845290915290205460ff16155b80610c8657506000878152600160205260409020546001600160a01b031615801590610c8657506000878152600160205260409020546001600160a01b03898116911614155b80610cfd575060068681548110610cad57634e487b7160e01b600052603260045260246000fd5b906000526020600020906007020160010154421080610cfd575060068681548110610ce857634e487b7160e01b600052603260045260246000fd5b90600052602060002090600702016002015442115b80610db5575060068681548110610d2457634e487b7160e01b600052603260045260246000fd5b906000526020600020906007020160030154600014158015610db5575060068681548110610d6257634e487b7160e01b600052603260045260246000fd5b90600052602060002090600702016003015460068781548110610d9557634e487b7160e01b600052603260045260246000fd5b9060005260206000209060070201600401546001610db39190613465565b115b80610e58575060068681548110610ddc57634e487b7160e01b600052603260045260246000fd5b906000526020600020906007020160000154600014158015610e58575060068681548110610e1a57634e487b7160e01b600052603260045260246000fd5b600091825260208083206007909202909101548883526003825260408084206001600160a01b038d168552909252912054610e56906001613465565b115b15610e61575060005b60075491986001600160a01b03909216975095509350505050565b6000546001600160a01b03163314610ea65760405162461bcd60e51b8152600401610856906133df565b828114610ee95760405162461bcd60e51b8152602060048201526011602482015270082e4e4c2f2e640c8dedce840dac2e8c6d607b1b6044820152606401610856565b6000805b82811015610f3b57838382818110610f1557634e487b7160e01b600052603260045260246000fd5b9050602002013582610f279190613465565b915080610f338161352e565b915050610eed565b50612710811115610f855760405162461bcd60e51b81526020600482015260146024820152730546f74616c20736861726573203e2031303030360641b6044820152606401610856565b610f91600a6000612cf0565b60005b8481101561106b57600a6040518060400160405280888885818110610fc957634e487b7160e01b600052603260045260246000fd5b9050602002016020810190610fde9190612e4b565b6001600160a01b0316815260200186868581811061100c57634e487b7160e01b600052603260045260246000fd5b60209081029290920135909252835460018082018655600095865294829020845160029092020180546001600160a01b0319166001600160a01b03909216919091178155920151919092015550806110638161352e565b915050610f94565b505050505050565b6000546001600160a01b0316331461109d5760405162461bcd60e51b8152600401610856906133df565b60008281526015602090815260409091208251610b5892840190612c6c565b6110c63382612350565b6110e25760405162461bcd60e51b815260040161085690613414565b610b58838383612447565b6000806000600760149054906101000a900460ff161561116b5760008581526009602052604090205461113c576127106008548561112b9190613491565b611135919061347d565b9050611166565b600085815260096020526040902054612710906111599086613491565b611163919061347d565b90505b61116f565b5060005b600c546001600160a01b0316925090505b9250929050565b6000546001600160a01b031633146111b15760405162461bcd60e51b8152600401610856906133df565b600682815481106111d257634e487b7160e01b600052603260045260246000fd5b600091825260209091206006600790920201015460ff1661122c5760405162461bcd60e51b81526020600482015260146024820152734576656e74206973206e6f74207072697661746560601b6044820152606401610856565b6001600160a01b0316600090815260056020908152604080832093835292905220805460ff19166001179055565b6000546001600160a01b031633146112845760405162461bcd60e51b8152600401610856906133df565b8385106112c45760405162461bcd60e51b815260206004820152600e60248201526d57726f6e672074696d656c696e6560901b6044820152606401610856565b42600688815481106112e657634e487b7160e01b600052603260045260246000fd5b906000526020600020906007020160010154116113455760405162461bcd60e51b815260206004820152601c60248201527f4576656e7420697320616c726561647920696e2070726f6772657373000000006044820152606401610856565b856006888154811061136757634e487b7160e01b600052603260045260246000fd5b906000526020600020906007020160000181905550846006888154811061139e57634e487b7160e01b600052603260045260246000fd5b90600052602060002090600702016001018190555083600688815481106113d557634e487b7160e01b600052603260045260246000fd5b906000526020600020906007020160020181905550826006888154811061140c57634e487b7160e01b600052603260045260246000fd5b906000526020600020906007020160030181905550816006888154811061144357634e487b7160e01b600052603260045260246000fd5b906000526020600020906007020160050181905550806006888154811061147a57634e487b7160e01b600052603260045260246000fd5b600091825260209182902060079190910201600601805460ff191692151592909217909155604080518981529182018890528101869052606081018590526080810184905260a0810183905281151560c08201527f448750bb861f014a5328a4d7ade11d63cc5e26ffa05ba1ff43a12d6d6aa2da759060e00160405180910390a150505050505050565b6014546001600160a01b0316331461154d5760405162461bcd60e51b815260206004820152600c60248201526b155b985d5d1a1bdc9a5e995960a21b6044820152606401610856565b61155782826125e7565b5050565b6000546001600160a01b0316331461154d5760405162461bcd60e51b8152600401610856906133df565b610b5883838360405180602001604052806000815250611d5f565b6000546001600160a01b031633146115ca5760405162461bcd60e51b8152600401610856906133df565b6007805460ff60a81b1916600160a81b179055565b6060600b6000838152602001908152602001600020805480602002602001604051908101604052809291908181526020016000905b8282101561165c576000848152602090819020604080518082019091526002850290910180546001600160a01b03168252600190810154828401529083529092019101611614565b505050509050919050565b600b602052816000526040600020818154811061168357600080fd5b6000918252602090912060029091020180546001909101546001600160a01b039091169250905082565b6000546001600160a01b031633146116d75760405162461bcd60e51b8152600401610856906133df565b83821461171a5760405162461bcd60e51b8152602060048201526011602482015270082e4e4c2f2e640c8dedce840dac2e8c6d607b1b6044820152606401610856565b6000805b8381101561176c5784848281811061174657634e487b7160e01b600052603260045260246000fd5b90506020020135826117589190613465565b9150806117648161352e565b91505061171e565b506127108111156117b65760405162461bcd60e51b81526020600482015260146024820152730546f74616c20736861726573203e2031303030360641b6044820152606401610856565b6000828152600b602052604081206117cd91612cf0565b60005b858110156118b857600b6000848152602001908152602001600020604051806040016040528089898581811061181657634e487b7160e01b600052603260045260246000fd5b905060200201602081019061182b9190612e4b565b6001600160a01b0316815260200187878581811061185957634e487b7160e01b600052603260045260246000fd5b60209081029290920135909252835460018082018655600095865294829020845160029092020180546001600160a01b0319166001600160a01b03909216919091178155920151919092015550806118b08161352e565b9150506117d0565b50505050505050565b6000818152600f60205260408120546001600160a01b031615156108a0565b6000546001600160a01b0316331461190a5760405162461bcd60e51b8152600401610856906133df565b600780546001600160a01b0319166001600160a01b0392909216919091179055565b6000818152600f60205260408120546001600160a01b0316806108a05760405162461bcd60e51b815260206004820152602960248201527f4552433732313a206f776e657220717565727920666f72206e6f6e657869737460448201526832b73a103a37b5b2b760b91b6064820152608401610856565b60606119ad612601565b905090565b60006001600160a01b038216611a1d5760405162461bcd60e51b815260206004820152602a60248201527f4552433732313a2062616c616e636520717565727920666f7220746865207a65604482015269726f206164647265737360b01b6064820152608401610856565b506001600160a01b031660009081526010602052604090205490565b6000546001600160a01b03163314611a635760405162461bcd60e51b8152600401610856906133df565b611a6d6000612610565b565b6000546001600160a01b03163314611a995760405162461bcd60e51b8152600401610856906133df565b600090815260016020526040902080546001600160a01b0319166001600160a01b0392909216919091179055565b6000546001600160a01b03163314611af15760405162461bcd60e51b8152600401610856906133df565b6001600160a01b038116611b3c5760405162461bcd60e51b815260206004820152601260248201527143616e74207365742030206164647265737360701b6044820152606401610856565b600c546001600160a01b0382811691161415611ba55760405162461bcd60e51b815260206004820152602260248201527f54686973206164647265737320697320616c726561647920612072656365697660448201526132b960f11b6064820152608401610856565b600c80546001600160a01b0319166001600160a01b0392909216919091179055565b6060600e805461092f906134f3565b6060600a805480602002602001604051908101604052809291908181526020016000905b82821015611c42576000848152602090819020604080518082019091526002850290910180546001600160a01b03168252600190810154828401529083529092019101611bfa565b50505050905090565b6000546001600160a01b03163314611c755760405162461bcd60e51b8152600401610856906133df565b6007805460ff60a01b1916600160a01b179055565b611557338383612660565b6014546001600160a01b03163314611cde5760405162461bcd60e51b815260206004820152600c60248201526b155b985d5d1a1bdc9a5e995960a21b6044820152606401610856565b611557828261272f565b6000546001600160a01b03163314611d125760405162461bcd60e51b8152600401610856906133df565b612328811115611d5a5760405162461bcd60e51b8152602060048201526013602482015272526f79616c7479206973206f7665722039302560681b6044820152606401610856565b600855565b611d693383612350565b611d855760405162461bcd60e51b815260040161085690613414565b611d91848484846127ee565b50505050565b6000546001600160a01b03163314611dc15760405162461bcd60e51b8152600401610856906133df565b612328821115611e095760405162461bcd60e51b8152602060048201526013602482015272526f79616c7479206973206f7665722039302560681b6044820152606401610856565b600090815260096020526040902055565b6000818152601560205260409020805460609190611e37906134f3565b159050611edc5760008281526015602052604090208054611e57906134f3565b80601f0160208091040260200160405190810160405280929190818152602001828054611e83906134f3565b8015611ed05780601f10611ea557610100808354040283529160200191611ed0565b820191906000526020600020905b815481529060010190602001808311611eb357829003601f168201915b505050505090506108a3565b6108a082612821565b6000546001600160a01b03163314611f0f5760405162461bcd60e51b8152600401610856906133df565b838510611f4f5760405162461bcd60e51b815260206004820152600e60248201526d57726f6e672074696d656c696e6560901b6044820152606401610856565b6040805160e081018252878152602081018781529181018681526060820186815260006080840181815260a0850188815287151560c0870190815260068054600180820183559582905297517ff652222313e28459528d920b65115c16c04f3efc82aaedc97be59f3f377c0d3f60079099029889015597517ff652222313e28459528d920b65115c16c04f3efc82aaedc97be59f3f377c0d4088015594517ff652222313e28459528d920b65115c16c04f3efc82aaedc97be59f3f377c0d4187015592517ff652222313e28459528d920b65115c16c04f3efc82aaedc97be59f3f377c0d42860155517ff652222313e28459528d920b65115c16c04f3efc82aaedc97be59f3f377c0d4385015590517ff652222313e28459528d920b65115c16c04f3efc82aaedc97be59f3f377c0d4484015590517ff652222313e28459528d920b65115c16c04f3efc82aaedc97be59f3f377c0d45909201805460ff19169215159290921790915590547f371687a1fd778649c94dacff2bded143ac95a75613c132fb9de37f2de739fa31916120e5916134b0565b60408051918252602082018990528101879052606081018690526080810185905260a0810184905282151560c082015260e00160405180910390a1505050505050565b6006818154811061213857600080fd5b60009182526020909120600790910201805460018201546002830154600384015460048501546005860154600690960154949650929491939092919060ff1687565b6000546001600160a01b031633146121a45760405162461bcd60e51b8152600401610856906133df565b6007805460ff60a01b19169055565b6000546001600160a01b031633146121dd5760405162461bcd60e51b8152600401610856906133df565b6001600160a01b0381166122425760405162461bcd60e51b815260206004820152602660248201527f4f776e61626c653a206e6577206f776e657220697320746865207a65726f206160448201526564647265737360d01b6064820152608401610856565b61224b81612610565b50565b6000546001600160a01b031633146122785760405162461bcd60e51b8152600401610856906133df565b6007805460ff60a81b19169055565b60006001600160e01b0319821663152a902d60e11b14806122b857506001600160e01b0319821663f19b019960e01b145b806122d357506001600160e01b03198216631189900560e11b145b806108a057506108a08261287f565b600081815260116020526040902080546001600160a01b0319166001600160a01b03841690811790915581906123178261192c565b6001600160a01b03167f8c5be1e5ebec7d5bd14f71427d1e84f3dd0314c0f7b2291e5b200ac8c7c3b92560405160405180910390a45050565b6000818152600f60205260408120546001600160a01b03166123c95760405162461bcd60e51b815260206004820152602c60248201527f4552433732313a206f70657261746f7220717565727920666f72206e6f6e657860448201526b34b9ba32b73a103a37b5b2b760a11b6064820152608401610856565b60006123d48361192c565b9050806001600160a01b0316846001600160a01b0316148061240f5750836001600160a01b0316612404846109b2565b6001600160a01b0316145b8061243f57506001600160a01b0380821660009081526012602090815260408083209388168352929052205460ff165b949350505050565b826001600160a01b031661245a8261192c565b6001600160a01b0316146124c25760405162461bcd60e51b815260206004820152602960248201527f4552433732313a207472616e73666572206f6620746f6b656e2074686174206960448201526839903737ba1037bbb760b91b6064820152608401610856565b6001600160a01b0382166125245760405162461bcd60e51b8152602060048201526024808201527f4552433732313a207472616e7366657220746f20746865207a65726f206164646044820152637265737360e01b6064820152608401610856565b61252f6000826122e2565b6001600160a01b03831660009081526010602052604081208054600192906125589084906134b0565b90915550506001600160a01b0382166000908152601060205260408120805460019290612586908490613465565b90915550506000818152600f602052604080822080546001600160a01b0319166001600160a01b0386811691821790925591518493918716917fddf252ad1be2c89b69c2b068fc378daa952ba7f163c4a11628f55a4df523b3ef91a4505050565b6115578282604051806020016040528060008152506128cf565b60606013805461092f906134f3565b600080546001600160a01b038381166001600160a01b0319831681178455604051919092169283917f8be0079c531659141344cd1fd0a4f28419497f9722a3daafe3b4186f6b6457e09190a35050565b816001600160a01b0316836001600160a01b031614156126c25760405162461bcd60e51b815260206004820152601960248201527f4552433732313a20617070726f766520746f2063616c6c6572000000000000006044820152606401610856565b6001600160a01b03838116600081815260126020908152604080832094871680845294825291829020805460ff191686151590811790915591519182527f17307eab39ab6107e8899845ad3d59bd9653f200f220920489ca2b5937696c31910160405180910390a3505050565b6006828154811061275057634e487b7160e01b600052603260045260246000fd5b9060005260206000209060070201600001546000146127a25760008281526003602090815260408083206001600160a01b0385168452909152812080546001929061279c908490613465565b90915550505b6001600683815481106127c557634e487b7160e01b600052603260045260246000fd5b906000526020600020906007020160040160008282546127e59190613465565b90915550505050565b6127f9848484612447565b61280584848484612902565b611d915760405162461bcd60e51b81526004016108569061338d565b6060600061282d612601565b9050600081511161284d5760405180602001604052806000815250612878565b8061285784612a0f565b6040516020016128689291906132b6565b6040516020818303038152906040525b9392505050565b60006001600160e01b031982166380ac58cd60e01b14806128b057506001600160e01b03198216635b5e139f60e01b145b806108a057506301ffc9a760e01b6001600160e01b03198316146108a0565b6128d98383612b2a565b6128e66000848484612902565b610b585760405162461bcd60e51b81526004016108569061338d565b60006001600160a01b0384163b15612a0457604051630a85bd0160e11b81526001600160a01b0385169063150b7a02906129469033908990889088906004016132e5565b602060405180830381600087803b15801561296057600080fd5b505af1925050508015612990575060408051601f3d908101601f1916820190925261298d918101906130c5565b60015b6129ea573d8080156129be576040519150601f19603f3d011682016040523d82523d6000602084013e6129c3565b606091505b5080516129e25760405162461bcd60e51b81526004016108569061338d565b805181602001fd5b6001600160e01b031916630a85bd0160e11b14905061243f565b506001949350505050565b606081612a3457506040805180820190915260018152600360fc1b60208201526108a3565b8160005b8115612a5e5780612a488161352e565b9150612a579050600a8361347d565b9150612a38565b60008167ffffffffffffffff811115612a8757634e487b7160e01b600052604160045260246000fd5b6040519080825280601f01601f191660200182016040528015612ab1576020820181803683370190505b5090505b841561243f57612ac66001836134b0565b9150612ad3600a86613549565b612ade906030613465565b60f81b818381518110612b0157634e487b7160e01b600052603260045260246000fd5b60200101906001600160f81b031916908160001a905350612b23600a8661347d565b9450612ab5565b6001600160a01b038216612b805760405162461bcd60e51b815260206004820181905260248201527f4552433732313a206d696e7420746f20746865207a65726f20616464726573736044820152606401610856565b6000818152600f60205260409020546001600160a01b031615612be55760405162461bcd60e51b815260206004820152601c60248201527f4552433732313a20746f6b656e20616c7265616479206d696e746564000000006044820152606401610856565b6001600160a01b0382166000908152601060205260408120805460019290612c0e908490613465565b90915550506000818152600f602052604080822080546001600160a01b0319166001600160a01b03861690811790915590518392907fddf252ad1be2c89b69c2b068fc378daa952ba7f163c4a11628f55a4df523b3ef908290a45050565b828054612c78906134f3565b90600052602060002090601f016020900481019282612c9a5760008555612ce0565b82601f10612cb357805160ff1916838001178555612ce0565b82800160010185558215612ce0579182015b82811115612ce0578251825591602001919060010190612cc5565b50612cec929150612d11565b5090565b508054600082556002029060005260206000209081019061224b9190612d26565b5b80821115612cec5760008155600101612d12565b5b80821115612cec5780546001600160a01b031916815560006001820155600201612d27565b600067ffffffffffffffff80841115612d6757612d67613589565b604051601f8501601f19908116603f01168101908282118183101715612d8f57612d8f613589565b81604052809350858152868686011115612da857600080fd5b858560208301376000602087830101525050509392505050565b80356001600160a01b03811681146108a357600080fd5b60008083601f840112612dea578081fd5b50813567ffffffffffffffff811115612e01578182fd5b6020830191508360208260051b850101111561118057600080fd5b803580151581146108a357600080fd5b600082601f830112612e3c578081fd5b61287883833560208501612d4c565b600060208284031215612e5c578081fd5b61287882612dc2565b60008060408385031215612e77578081fd5b612e8083612dc2565b9150612e8e60208401612dc2565b90509250929050565b600080600060608486031215612eab578081fd5b612eb484612dc2565b9250612ec260208501612dc2565b9150604084013590509250925092565b60008060008060808587031215612ee7578081fd5b612ef085612dc2565b9350612efe60208601612dc2565b925060408501359150606085013567ffffffffffffffff811115612f20578182fd5b8501601f81018713612f30578182fd5b612f3f87823560208401612d4c565b91505092959194509250565b60008060408385031215612f5d578182fd5b612f6683612dc2565b9150612e8e60208401612e1c565b60008060408385031215612f86578182fd5b612f8f83612dc2565b946020939093013593505050565b600080600060608486031215612fb1578283fd5b612fba84612dc2565b95602085013595506040909401359392505050565b60008060008060408587031215612fe4578384fd5b843567ffffffffffffffff80821115612ffb578586fd5b61300788838901612dd9565b9096509450602087013591508082111561301f578384fd5b5061302c87828801612dd9565b95989497509550505050565b60008060008060006060868803121561304f578081fd5b853567ffffffffffffffff80821115613066578283fd5b61307289838a01612dd9565b9097509550602088013591508082111561308a578283fd5b5061309788828901612dd9565b96999598509660400135949350505050565b6000602082840312156130ba578081fd5b81356128788161359f565b6000602082840312156130d6578081fd5b81516128788161359f565b6000602082840312156130f2578081fd5b813567ffffffffffffffff811115613108578182fd5b61243f84828501612e2c565b600060208284031215613125578081fd5b5035919050565b6000806040838503121561313e578182fd5b82359150612e8e60208401612dc2565b60008060408385031215613160578182fd5b82359150602083013567ffffffffffffffff81111561317d578182fd5b61318985828601612e2c565b9150509250929050565b600080604083850312156131a5578182fd5b50508035926020909101359150565b6000806000606084860312156131c8578081fd5b505081359360208301359350604090920135919050565b60008060008060008060c087890312156131f7578384fd5b863595506020870135945060408701359350606087013592506080870135915061322360a08801612e1c565b90509295509295509295565b600080600080600080600060e0888a031215613249578485fd5b873596506020880135955060408801359450606088013593506080880135925060a0880135915061327c60c08901612e1c565b905092959891949750929550565b600081518084526132a28160208601602086016134c7565b601f01601f19169290920160200192915050565b600083516132c88184602088016134c7565b8351908301906132dc8183602088016134c7565b01949350505050565b6001600160a01b03858116825284166020820152604081018390526080606082018190526000906133189083018461328a565b9695505050505050565b602080825282518282018190526000919060409081850190868401855b8281101561336d57815180516001600160a01b0316855286015186850152928401929085019060010161333f565b5091979650505050505050565b600060208252612878602083018461328a565b60208082526032908201527f4552433732313a207472616e7366657220746f206e6f6e20455243373231526560408201527131b2b4bb32b91034b6b83632b6b2b73a32b960711b606082015260800190565b6020808252818101527f4f776e61626c653a2063616c6c6572206973206e6f7420746865206f776e6572604082015260600190565b60208082526031908201527f4552433732313a207472616e736665722063616c6c6572206973206e6f74206f6040820152701ddb995c881b9bdc88185c1c1c9bdd9959607a1b606082015260800190565b600082198211156134785761347861355d565b500190565b60008261348c5761348c613573565b500490565b60008160001904831182151516156134ab576134ab61355d565b500290565b6000828210156134c2576134c261355d565b500390565b60005b838110156134e25781810151838201526020016134ca565b83811115611d915750506000910152565b600181811c9082168061350757607f821691505b6020821081141561352857634e487b7160e01b600052602260045260246000fd5b50919050565b60006000198214156135425761354261355d565b5060010190565b60008261355857613558613573565b500690565b634e487b7160e01b600052601160045260246000fd5b634e487b7160e01b600052601260045260246000fd5b634e487b7160e01b600052604160045260246000fd5b6001600160e01b03198116811461224b57600080fdfea2646970667358221220225db9c644ae1daec6a48758ff26c326d9611931c4c426ec7de0be991315ee1964736f6c63430008030033",
	"linkReferences": {},
	"deployedLinkReferences": {}
}