{
	"_format": "hh-sol-artifact-1",
	"contractName": "ExtendedERC1155",
	"sourceName": "contracts/NFT/ExtendedERC1155.sol",
	"abi": [
		{
			"inputs": [
				{
					"internalType": "address",
					"name": "owner_",
					"type": "address"
				},
				{
					"internalType": "address",
					"name": "decryptMarketplaceAddress_",
					"type": "address"
				},
				{
					"internalType": "string",
					"name": "uri_",
					"type": "string"
				},
				{
					"internalType": "uint256",
					"name": "royalty_",
					"type": "uint256"
				},
				{
					"internalType": "address",
					"name": "preSalePaymentToken_",
					"type": "address"
				}
			],
			"stateMutability": "nonpayable",
			"type": "constructor"
		},
		{
			"anonymous": false,
			"inputs": [
				{
					"indexed": true,
					"internalType": "address",
					"name": "account",
					"type": "address"
				},
				{
					"indexed": true,
					"internalType": "address",
					"name": "operator",
					"type": "address"
				},
				{
					"indexed": false,
					"internalType": "bool",
					"name": "approved",
					"type": "bool"
				}
			],
			"name": "ApprovalForAll",
			"type": "event"
		},
		{
			"anonymous": false,
			"inputs": [
				{
					"indexed": false,
					"internalType": "uint256",
					"name": "",
					"type": "uint256"
				}
			],
			"name": "NewGlobalRoyalty",
			"type": "event"
		},
		{
			"anonymous": false,
			"inputs": [
				{
					"indexed": false,
					"internalType": "uint256",
					"name": "_eventId",
					"type": "uint256"
				},
				{
					"indexed": false,
					"internalType": "uint256",
					"name": "_maxTokensPerWallet",
					"type": "uint256"
				},
				{
					"indexed": false,
					"internalType": "uint256",
					"name": "_maxTokensOfSameIdPerWallet",
					"type": "uint256"
				},
				{
					"indexed": false,
					"internalType": "uint256",
					"name": "_startTime",
					"type": "uint256"
				},
				{
					"indexed": false,
					"internalType": "uint256",
					"name": "_endTime",
					"type": "uint256"
				},
				{
					"indexed": false,
					"internalType": "uint256",
					"name": "_maxTokensForTier",
					"type": "uint256"
				},
				{
					"indexed": false,
					"internalType": "uint256",
					"name": "_price",
					"type": "uint256"
				},
				{
					"indexed": false,
					"internalType": "bool",
					"name": "_whiteList",
					"type": "bool"
				}
			],
			"name": "NewPreSale",
			"type": "event"
		},
		{
			"anonymous": false,
			"inputs": [
				{
					"indexed": false,
					"internalType": "address",
					"name": "",
					"type": "address"
				}
			],
			"name": "NewPreSalePaymentToken",
			"type": "event"
		},
		{
			"anonymous": false,
			"inputs": [
				{
					"indexed": false,
					"internalType": "address",
					"name": "",
					"type": "address"
				}
			],
			"name": "NewRoyaltyReceiver",
			"type": "event"
		},
		{
			"anonymous": false,
			"inputs": [
				{
					"indexed": false,
					"internalType": "uint256",
					"name": "royalty",
					"type": "uint256"
				},
				{
					"indexed": false,
					"internalType": "uint256",
					"name": "tokenId",
					"type": "uint256"
				}
			],
			"name": "NewTokenRoyalty",
			"type": "event"
		},
		{
			"anonymous": false,
			"inputs": [
				{
					"indexed": true,
					"internalType": "address",
					"name": "previousOwner",
					"type": "address"
				},
				{
					"indexed": true,
					"internalType": "address",
					"name": "newOwner",
					"type": "address"
				}
			],
			"name": "OwnershipTransferred",
			"type": "event"
		},
		{
			"anonymous": false,
			"inputs": [
				{
					"indexed": false,
					"internalType": "uint256",
					"name": "eventId",
					"type": "uint256"
				},
				{
					"indexed": false,
					"internalType": "uint256",
					"name": "tokenId",
					"type": "uint256"
				},
				{
					"indexed": false,
					"internalType": "uint256",
					"name": "price",
					"type": "uint256"
				}
			],
			"name": "SpecialPrice",
			"type": "event"
		},
		{
			"anonymous": false,
			"inputs": [
				{
					"indexed": true,
					"internalType": "address",
					"name": "operator",
					"type": "address"
				},
				{
					"indexed": true,
					"internalType": "address",
					"name": "from",
					"type": "address"
				},
				{
					"indexed": true,
					"internalType": "address",
					"name": "to",
					"type": "address"
				},
				{
					"indexed": false,
					"internalType": "uint256[]",
					"name": "ids",
					"type": "uint256[]"
				},
				{
					"indexed": false,
					"internalType": "uint256[]",
					"name": "values",
					"type": "uint256[]"
				}
			],
			"name": "TransferBatch",
			"type": "event"
		},
		{
			"anonymous": false,
			"inputs": [
				{
					"indexed": true,
					"internalType": "address",
					"name": "operator",
					"type": "address"
				},
				{
					"indexed": true,
					"internalType": "address",
					"name": "from",
					"type": "address"
				},
				{
					"indexed": true,
					"internalType": "address",
					"name": "to",
					"type": "address"
				},
				{
					"indexed": false,
					"internalType": "uint256",
					"name": "id",
					"type": "uint256"
				},
				{
					"indexed": false,
					"internalType": "uint256",
					"name": "value",
					"type": "uint256"
				}
			],
			"name": "TransferSingle",
			"type": "event"
		},
		{
			"anonymous": false,
			"inputs": [
				{
					"indexed": false,
					"internalType": "string",
					"name": "value",
					"type": "string"
				},
				{
					"indexed": true,
					"internalType": "uint256",
					"name": "id",
					"type": "uint256"
				}
			],
			"name": "URI",
			"type": "event"
		},
		{
			"anonymous": false,
			"inputs": [
				{
					"indexed": false,
					"internalType": "uint256",
					"name": "_eventId",
					"type": "uint256"
				},
				{
					"indexed": false,
					"internalType": "uint256",
					"name": "_maxTokensPerWallet",
					"type": "uint256"
				},
				{
					"indexed": false,
					"internalType": "uint256",
					"name": "_maxTokensOfSameIdPerWallet",
					"type": "uint256"
				},
				{
					"indexed": false,
					"internalType": "uint256",
					"name": "_startTime",
					"type": "uint256"
				},
				{
					"indexed": false,
					"internalType": "uint256",
					"name": "_endTime",
					"type": "uint256"
				},
				{
					"indexed": false,
					"internalType": "uint256",
					"name": "_maxTokensForTier",
					"type": "uint256"
				},
				{
					"indexed": false,
					"internalType": "uint256",
					"name": "_price",
					"type": "uint256"
				},
				{
					"indexed": false,
					"internalType": "bool",
					"name": "_whiteList",
					"type": "bool"
				}
			],
			"name": "UpdatedPreSale",
			"type": "event"
		},
		{
			"anonymous": false,
			"inputs": [
				{
					"indexed": false,
					"internalType": "string",
					"name": "_uri",
					"type": "string"
				}
			],
			"name": "UpdatedURI",
			"type": "event"
		},
		{
			"anonymous": false,
			"inputs": [
				{
					"indexed": false,
					"internalType": "uint256",
					"name": "eventId",
					"type": "uint256"
				},
				{
					"indexed": false,
					"internalType": "address",
					"name": "buyer",
					"type": "address"
				}
			],
			"name": "Whitelisted",
			"type": "event"
		},
		{
			"inputs": [
				{
					"internalType": "uint256",
					"name": "eventId",
					"type": "uint256"
				},
				{
					"internalType": "address",
					"name": "buyer",
					"type": "address"
				}
			],
			"name": "addToWhitelist",
			"outputs": [],
			"stateMutability": "nonpayable",
			"type": "function"
		},
		{
			"inputs": [
				{
					"internalType": "address",
					"name": "account",
					"type": "address"
				},
				{
					"internalType": "uint256",
					"name": "id",
					"type": "uint256"
				}
			],
			"name": "balanceOf",
			"outputs": [
				{
					"internalType": "uint256",
					"name": "",
					"type": "uint256"
				}
			],
			"stateMutability": "view",
			"type": "function"
		},
		{
			"inputs": [
				{
					"internalType": "address[]",
					"name": "accounts",
					"type": "address[]"
				},
				{
					"internalType": "uint256[]",
					"name": "ids",
					"type": "uint256[]"
				}
			],
			"name": "balanceOfBatch",
			"outputs": [
				{
					"internalType": "uint256[]",
					"name": "",
					"type": "uint256[]"
				}
			],
			"stateMutability": "view",
			"type": "function"
		},
		{
			"inputs": [
				{
					"internalType": "address",
					"name": "buyer",
					"type": "address"
				},
				{
					"internalType": "uint256",
					"name": "tokenId",
					"type": "uint256"
				},
				{
					"internalType": "uint256",
					"name": "amount",
					"type": "uint256"
				},
				{
					"internalType": "uint256",
					"name": "eventId",
					"type": "uint256"
				}
			],
			"name": "countTokensBought",
			"outputs": [],
			"stateMutability": "nonpayable",
			"type": "function"
		},
		{
			"inputs": [
				{
					"internalType": "uint256",
					"name": "_maxTokensPerWallet",
					"type": "uint256"
				},
				{
					"internalType": "uint256",
					"name": "_maxTokensOfSameIdPerWallet",
					"type": "uint256"
				},
				{
					"internalType": "uint256",
					"name": "_startTime",
					"type": "uint256"
				},
				{
					"internalType": "uint256",
					"name": "_endTime",
					"type": "uint256"
				},
				{
					"internalType": "uint256",
					"name": "_maxTokensForEvent",
					"type": "uint256"
				},
				{
					"internalType": "uint256",
					"name": "_price",
					"type": "uint256"
				},
				{
					"internalType": "bool",
					"name": "_whiteList",
					"type": "bool"
				}
			],
			"name": "createPreSaleEvent",
			"outputs": [],
			"stateMutability": "nonpayable",
			"type": "function"
		},
		{
			"inputs": [],
			"name": "decryptMarketplaceAddress",
			"outputs": [
				{
					"internalType": "address",
					"name": "",
					"type": "address"
				}
			],
			"stateMutability": "view",
			"type": "function"
		},
		{
			"inputs": [],
			"name": "disableRoyalty",
			"outputs": [],
			"stateMutability": "nonpayable",
			"type": "function"
		},
		{
			"inputs": [],
			"name": "disableRoyaltyDistribution",
			"outputs": [],
			"stateMutability": "nonpayable",
			"type": "function"
		},
		{
			"inputs": [],
			"name": "enableRoyalty",
			"outputs": [],
			"stateMutability": "nonpayable",
			"type": "function"
		},
		{
			"inputs": [],
			"name": "enableRoyaltyDistribution",
			"outputs": [],
			"stateMutability": "nonpayable",
			"type": "function"
		},
		{
			"inputs": [
				{
					"internalType": "bool",
					"name": "_forbidden",
					"type": "bool"
				}
			],
			"name": "forbidToTradeOnOtherMarketplaces",
			"outputs": [],
			"stateMutability": "nonpayable",
			"type": "function"
		},
		{
			"inputs": [],
			"name": "getDefaultRoyaltyDistribution",
			"outputs": [
				{
					"components": [
						{
							"internalType": "address",
							"name": "collaborator",
							"type": "address"
						},
						{
							"internalType": "uint256",
							"name": "share",
							"type": "uint256"
						}
					],
					"internalType": "struct RoyaltyDistribution.RoyaltyShare[]",
					"name": "",
					"type": "tuple[]"
				}
			],
			"stateMutability": "view",
			"type": "function"
		},
		{
			"inputs": [
				{
					"internalType": "address",
					"name": "buyer",
					"type": "address"
				},
				{
					"internalType": "uint256",
					"name": "tokenId",
					"type": "uint256"
				},
				{
					"internalType": "uint256",
					"name": "quantity",
					"type": "uint256"
				},
				{
					"internalType": "uint256",
					"name": "eventId",
					"type": "uint256"
				}
			],
			"name": "getTokenInfo",
			"outputs": [
				{
					"internalType": "uint256",
					"name": "tokenPrice",
					"type": "uint256"
				},
				{
					"internalType": "address",
					"name": "paymentToken",
					"type": "address"
				},
				{
					"internalType": "bool",
					"name": "availableForBuyer",
					"type": "bool"
				}
			],
			"stateMutability": "view",
			"type": "function"
		},
		{
			"inputs": [
				{
					"internalType": "uint256",
					"name": "tokenId",
					"type": "uint256"
				}
			],
			"name": "getTokenRoyaltyDistribution",
			"outputs": [
				{
					"components": [
						{
							"internalType": "address",
							"name": "collaborator",
							"type": "address"
						},
						{
							"internalType": "uint256",
							"name": "share",
							"type": "uint256"
						}
					],
					"internalType": "struct RoyaltyDistribution.RoyaltyShare[]",
					"name": "",
					"type": "tuple[]"
				}
			],
			"stateMutability": "view",
			"type": "function"
		},
		{
			"inputs": [],
			"name": "globalRoyalty",
			"outputs": [
				{
					"internalType": "uint256",
					"name": "",
					"type": "uint256"
				}
			],
			"stateMutability": "view",
			"type": "function"
		},
		{
			"inputs": [],
			"name": "globalRoyaltyEnabled",
			"outputs": [
				{
					"internalType": "bool",
					"name": "",
					"type": "bool"
				}
			],
			"stateMutability": "view",
			"type": "function"
		},
		{
			"inputs": [
				{
					"internalType": "address",
					"name": "",
					"type": "address"
				},
				{
					"internalType": "uint256",
					"name": "",
					"type": "uint256"
				}
			],
			"name": "isAddressWhitelisted",
			"outputs": [
				{
					"internalType": "bool",
					"name": "",
					"type": "bool"
				}
			],
			"stateMutability": "view",
			"type": "function"
		},
		{
			"inputs": [
				{
					"internalType": "address",
					"name": "account",
					"type": "address"
				},
				{
					"internalType": "address",
					"name": "operator",
					"type": "address"
				}
			],
			"name": "isApprovedForAll",
			"outputs": [
				{
					"internalType": "bool",
					"name": "",
					"type": "bool"
				}
			],
			"stateMutability": "view",
			"type": "function"
		},
		{
			"inputs": [
				{
					"internalType": "address",
					"name": "to",
					"type": "address"
				},
				{
					"internalType": "uint256",
					"name": "tokenId",
					"type": "uint256"
				},
				{
					"internalType": "uint256",
					"name": "amount",
					"type": "uint256"
				}
			],
			"name": "lazyMint",
			"outputs": [],
			"stateMutability": "nonpayable",
			"type": "function"
		},
		{
			"inputs": [
				{
					"internalType": "address",
					"name": "account",
					"type": "address"
				},
				{
					"internalType": "uint256",
					"name": "id",
					"type": "uint256"
				},
				{
					"internalType": "uint256",
					"name": "amount",
					"type": "uint256"
				}
			],
			"name": "mint",
			"outputs": [],
			"stateMutability": "nonpayable",
			"type": "function"
		},
		{
			"inputs": [
				{
					"internalType": "address",
					"name": "to",
					"type": "address"
				},
				{
					"internalType": "uint256[]",
					"name": "ids",
					"type": "uint256[]"
				},
				{
					"internalType": "uint256[]",
					"name": "amounts",
					"type": "uint256[]"
				}
			],
			"name": "mintBatch",
			"outputs": [],
			"stateMutability": "nonpayable",
			"type": "function"
		},
		{
			"inputs": [],
			"name": "owner",
			"outputs": [
				{
					"internalType": "address",
					"name": "",
					"type": "address"
				}
			],
			"stateMutability": "view",
			"type": "function"
		},
		{
			"inputs": [
				{
					"internalType": "uint256",
					"name": "",
					"type": "uint256"
				}
			],
			"name": "preSaleEventInfo",
			"outputs": [
				{
					"internalType": "uint256",
					"name": "maxTokensPerWallet",
					"type": "uint256"
				},
				{
					"internalType": "uint256",
					"name": "maxTokensOfSameIdPerWallet",
					"type": "uint256"
				},
				{
					"internalType": "uint256",
					"name": "startTime",
					"type": "uint256"
				},
				{
					"internalType": "uint256",
					"name": "endTime",
					"type": "uint256"
				},
				{
					"internalType": "uint256",
					"name": "maxTokensForEvent",
					"type": "uint256"
				},
				{
					"internalType": "uint256",
					"name": "tokensSold",
					"type": "uint256"
				},
				{
					"internalType": "uint256",
					"name": "price",
					"type": "uint256"
				},
				{
					"internalType": "bool",
					"name": "whiteList",
					"type": "bool"
				}
			],
			"stateMutability": "view",
			"type": "function"
		},
		{
			"inputs": [],
			"name": "preSalePaymentToken",
			"outputs": [
				{
					"internalType": "address",
					"name": "",
					"type": "address"
				}
			],
			"stateMutability": "view",
			"type": "function"
		},
		{
			"inputs": [],
			"name": "renounceOwnership",
			"outputs": [],
			"stateMutability": "nonpayable",
			"type": "function"
		},
		{
			"inputs": [],
			"name": "royaltyDistributionEnabled",
			"outputs": [
				{
					"internalType": "bool",
					"name": "",
					"type": "bool"
				}
			],
			"stateMutability": "view",
			"type": "function"
		},
		{
			"inputs": [
				{
					"internalType": "uint256",
					"name": "_tokenId",
					"type": "uint256"
				},
				{
					"internalType": "uint256",
					"name": "_salePrice",
					"type": "uint256"
				}
			],
			"name": "royaltyInfo",
			"outputs": [
				{
					"internalType": "address",
					"name": "receiver",
					"type": "address"
				},
				{
					"internalType": "uint256",
					"name": "royaltyAmount",
					"type": "uint256"
				}
			],
			"stateMutability": "view",
			"type": "function"
		},
		{
			"inputs": [],
			"name": "royaltyReceiver",
			"outputs": [
				{
					"internalType": "address",
					"name": "",
					"type": "address"
				}
			],
			"stateMutability": "view",
			"type": "function"
		},
		{
			"inputs": [
				{
					"internalType": "address",
					"name": "from",
					"type": "address"
				},
				{
					"internalType": "address",
					"name": "to",
					"type": "address"
				},
				{
					"internalType": "uint256[]",
					"name": "ids",
					"type": "uint256[]"
				},
				{
					"internalType": "uint256[]",
					"name": "amounts",
					"type": "uint256[]"
				},
				{
					"internalType": "bytes",
					"name": "data",
					"type": "bytes"
				}
			],
			"name": "safeBatchTransferFrom",
			"outputs": [],
			"stateMutability": "nonpayable",
			"type": "function"
		},
		{
			"inputs": [
				{
					"internalType": "address",
					"name": "from",
					"type": "address"
				},
				{
					"internalType": "address",
					"name": "to",
					"type": "address"
				},
				{
					"internalType": "uint256",
					"name": "id",
					"type": "uint256"
				},
				{
					"internalType": "uint256",
					"name": "amount",
					"type": "uint256"
				},
				{
					"internalType": "bytes",
					"name": "data",
					"type": "bytes"
				}
			],
			"name": "safeTransferFrom",
			"outputs": [],
			"stateMutability": "nonpayable",
			"type": "function"
		},
		{
			"inputs": [
				{
					"internalType": "address",
					"name": "operator",
					"type": "address"
				},
				{
					"internalType": "bool",
					"name": "approved",
					"type": "bool"
				}
			],
			"name": "setApprovalForAll",
			"outputs": [],
			"stateMutability": "nonpayable",
			"type": "function"
		},
		{
			"inputs": [
				{
					"internalType": "uint256",
					"name": "tokenId",
					"type": "uint256"
				},
				{
					"internalType": "string",
					"name": "_customUri",
					"type": "string"
				}
			],
			"name": "setCustomTokenUri",
			"outputs": [],
			"stateMutability": "nonpayable",
			"type": "function"
		},
		{
			"inputs": [
				{
					"internalType": "address[]",
					"name": "collaborators",
					"type": "address[]"
				},
				{
					"internalType": "uint256[]",
					"name": "shares",
					"type": "uint256[]"
				}
			],
			"name": "setDefaultRoyaltyDistribution",
			"outputs": [],
			"stateMutability": "nonpayable",
			"type": "function"
		},
		{
			"inputs": [
				{
					"internalType": "uint256",
					"name": "_royalty",
					"type": "uint256"
				}
			],
			"name": "setGlobalRoyalty",
			"outputs": [],
			"stateMutability": "nonpayable",
			"type": "function"
		},
		{
			"inputs": [
				{
					"internalType": "address",
					"name": "_preSalePaymentToken",
					"type": "address"
				}
			],
			"name": "setPreSalePaymentToken",
			"outputs": [],
			"stateMutability": "nonpayable",
			"type": "function"
		},
		{
			"inputs": [
				{
					"internalType": "address",
					"name": "newRoyaltyReceiver",
					"type": "address"
				}
			],
			"name": "setRoyaltyReceiver",
			"outputs": [],
			"stateMutability": "nonpayable",
			"type": "function"
		},
		{
			"inputs": [
				{
					"internalType": "uint256",
					"name": "eventId",
					"type": "uint256"
				},
				{
					"internalType": "uint256",
					"name": "tokenId",
					"type": "uint256"
				},
				{
					"internalType": "uint256",
					"name": "price",
					"type": "uint256"
				}
			],
			"name": "setSpecialPriceForToken",
			"outputs": [],
			"stateMutability": "nonpayable",
			"type": "function"
		},
		{
			"inputs": [
				{
					"internalType": "uint256",
					"name": "_royalty",
					"type": "uint256"
				},
				{
					"internalType": "uint256",
					"name": "_tokenId",
					"type": "uint256"
				}
			],
			"name": "setTokenRoyalty",
			"outputs": [],
			"stateMutability": "nonpayable",
			"type": "function"
		},
		{
			"inputs": [
				{
					"internalType": "address[]",
					"name": "collaborators",
					"type": "address[]"
				},
				{
					"internalType": "uint256[]",
					"name": "shares",
					"type": "uint256[]"
				},
				{
					"internalType": "uint256",
					"name": "tokenId",
					"type": "uint256"
				}
			],
			"name": "setTokenRoyaltyDistribution",
			"outputs": [],
			"stateMutability": "nonpayable",
			"type": "function"
		},
		{
			"inputs": [
				{
					"internalType": "string",
					"name": "uri_",
					"type": "string"
				}
			],
			"name": "setURI",
			"outputs": [],
			"stateMutability": "nonpayable",
			"type": "function"
		},
		{
			"inputs": [
				{
					"internalType": "uint256",
					"name": "",
					"type": "uint256"
				},
				{
					"internalType": "uint256",
					"name": "",
					"type": "uint256"
				}
			],
			"name": "specialPrice",
			"outputs": [
				{
					"internalType": "uint256",
					"name": "",
					"type": "uint256"
				}
			],
			"stateMutability": "view",
			"type": "function"
		},
		{
			"inputs": [
				{
					"internalType": "bytes4",
					"name": "interfaceId",
					"type": "bytes4"
				}
			],
			"name": "supportsInterface",
			"outputs": [
				{
					"internalType": "bool",
					"name": "",
					"type": "bool"
				}
			],
			"stateMutability": "view",
			"type": "function"
		},
		{
			"inputs": [
				{
					"internalType": "uint256",
					"name": "",
					"type": "uint256"
				}
			],
			"name": "tokenRoyalty",
			"outputs": [
				{
					"internalType": "uint256",
					"name": "",
					"type": "uint256"
				}
			],
			"stateMutability": "view",
			"type": "function"
		},
		{
			"inputs": [
				{
					"internalType": "address",
					"name": "newOwner",
					"type": "address"
				}
			],
			"name": "transferOwnership",
			"outputs": [],
			"stateMutability": "nonpayable",
			"type": "function"
		},
		{
			"inputs": [
				{
					"internalType": "uint256",
					"name": "_eventId",
					"type": "uint256"
				},
				{
					"internalType": "uint256",
					"name": "_maxTokensPerWallet",
					"type": "uint256"
				},
				{
					"internalType": "uint256",
					"name": "_maxTokensOfSameIdPerWallet",
					"type": "uint256"
				},
				{
					"internalType": "uint256",
					"name": "_startTime",
					"type": "uint256"
				},
				{
					"internalType": "uint256",
					"name": "_endTime",
					"type": "uint256"
				},
				{
					"internalType": "uint256",
					"name": "_maxTokensForEvent",
					"type": "uint256"
				},
				{
					"internalType": "uint256",
					"name": "_price",
					"type": "uint256"
				},
				{
					"internalType": "bool",
					"name": "_whiteList",
					"type": "bool"
				}
			],
			"name": "updatePreSaleEvent",
			"outputs": [],
			"stateMutability": "nonpayable",
			"type": "function"
		},
		{
			"inputs": [
				{
					"internalType": "uint256",
					"name": "tokenId",
					"type": "uint256"
				}
			],
			"name": "uri",
			"outputs": [
				{
					"internalType": "string",
					"name": "",
					"type": "string"
				}
			],
			"stateMutability": "view",
			"type": "function"
		}
	],
	"bytecode": "0x60806040526006805461ffff60a01b191661010160a01b179055600f805460ff60a01b191690553480156200003357600080fd5b5060405162003f1038038062003f10833981016040819052620000569162000239565b84848484816200006633620000cf565b62000071816200011f565b506007819055620000828462000131565b5050600b80546001600160a01b039384166001600160a01b031991821617909155600f8054928416928216929092179091556006805493909216921691909117905550620004ab92505050565b600080546001600160a01b038381166001600160a01b0319831681178455604051919092169283917f8be0079c531659141344cd1fd0a4f28419497f9722a3daafe3b4186f6b6457e09190a35050565b600e6200012d8282620003df565b5050565b6000546001600160a01b03163314620001915760405162461bcd60e51b815260206004820181905260248201527f4f776e61626c653a2063616c6c6572206973206e6f7420746865206f776e657260448201526064015b60405180910390fd5b6001600160a01b038116620001f85760405162461bcd60e51b815260206004820152602660248201527f4f776e61626c653a206e6577206f776e657220697320746865207a65726f206160448201526564647265737360d01b606482015260840162000188565b6200020381620000cf565b50565b80516001600160a01b03811681146200021e57600080fd5b919050565b634e487b7160e01b600052604160045260246000fd5b600080600080600060a086880312156200025257600080fd5b6200025d8662000206565b945060206200026e81880162000206565b60408801519095506001600160401b03808211156200028c57600080fd5b818901915089601f830112620002a157600080fd5b815181811115620002b657620002b662000223565b604051601f8201601f19908116603f01168101908382118183101715620002e157620002e162000223565b816040528281528c86848701011115620002fa57600080fd5b600093505b828410156200031e5784840186015181850187015292850192620002ff565b600086848301015280985050505050505060608601519150620003446080870162000206565b90509295509295909350565b600181811c908216806200036557607f821691505b6020821081036200038657634e487b7160e01b600052602260045260246000fd5b50919050565b601f821115620003da57600081815260208120601f850160051c81016020861015620003b55750805b601f850160051c820191505b81811015620003d657828155600101620003c1565b5050505b505050565b81516001600160401b03811115620003fb57620003fb62000223565b62000413816200040c845462000350565b846200038c565b602080601f8311600181146200044b5760008415620004325750858301515b600019600386901b1c1916600185901b178555620003d6565b600085815260208120601f198616915b828110156200047c578886015182559484019460019091019084016200045b565b50858210156200049b5787850151600019600388901b60f8161c191681555b5050505050600190811b01905550565b613a5580620004bb6000396000f3fe608060405234801561001057600080fd5b50600436106102885760003560e01c80635776be2d1161015c578063a22cb465116100ce578063e985e9c511610087578063e985e9c51461064b578063ee2dd6d114610687578063f242432a1461068f578063f2fde38b146106a2578063f8ef6b71146106b5578063fba52c24146106bd57600080fd5b8063a22cb465146105c4578063b0de83a3146105d7578063bc189d38146105ea578063d81d0a15146105fd578063da536f5a14610610578063e8c152051461063757600080fd5b80638da5cb5b116101205780638da5cb5b1461054f5780638dc251e3146105605780639a941f5c146105735780639fbc8713146105a15780639fc28f81146105b4578063a0c7489d146105bc57600080fd5b80635776be2d146104a657806359112bb3146104b9578063715018a6146104e457806373ba0289146104ec578063863aa1c51461051757600080fd5b80631ff4a4201161020057806348375f84116101b957806348375f8414610424578063483b81ef146104445780634e1273f41461044d5780634e6836ab1461046d5780635219e8a2146104805780635373dd881461049357600080fd5b80631ff4a4201461039157806327414163146103b15780632a55205a146103c45780632d785461146103f65780632eb2c2d614610409578063445375201461041c57600080fd5b80630c2e2601116102525780630c2e2601146103125780630e89341c146103255780631303657714610345578063156e29f6146103585780631763b4a81461036b5780631b267eab1461037e57600080fd5b8062e12fe21461028d578062fdd58e146102a2578063012e46b6146102c857806301ffc9a7146102ec57806302fe5305146102ff575b600080fd5b6102a061029b366004612baf565b6106d0565b005b6102b56102b0366004612bf7565b610763565b6040519081526020015b60405180910390f35b6006546102dc90600160a81b900460ff1681565b60405190151581526020016102bf565b6102dc6102fa366004612c37565b6107fa565b6102a061030d366004612d10565b61081f565b6102a0610320366004612d5c565b61088c565b610338610333366004612dc2565b610aea565b6040516102bf9190612e21565b6102a0610353366004612e34565b610bb5565b6102a0610366366004612e4f565b610c4d565b6102a0610379366004612ec6565b610ca2565b6102a061038c366004612f31565b610e6f565b6102b561039f366004612dc2565b60086020526000908152604090205481565b6102a06103bf366004612e4f565b610eb1565b6103d76103d2366004612f77565b610edb565b604080516001600160a01b0390931683526020830191909152016102bf565b6102a0610404366004612f99565b610f65565b6102a0610417366004613059565b611067565b6102a06110fe565b610437610432366004612dc2565b61113d565b6040516102bf9190613102565b6102b560075481565b61046061045b36600461315a565b6111c5565b6040516102bf9190613255565b6102a061047b366004613268565b6112ee565b6102a061048e3660046132db565b6114d8565b6102a06104a13660046132f6565b611550565b6102a06104b436600461332f565b61158c565b600f546104cc906001600160a01b031681565b6040516001600160a01b0390911681526020016102bf565b6102a06117e7565b6102b56104fa366004612f77565b600160209081526000928352604080842090915290825290205481565b61052a6105253660046132f6565b61181d565b604080519384526001600160a01b0390921660208401521515908201526060016102bf565b6000546001600160a01b03166104cc565b6102a061056e3660046132db565b611b0c565b6102dc610581366004612bf7565b600460209081526000928352604080842090915290825290205460ff1681565b600b546104cc906001600160a01b031681565b610437611c38565b6102a0611cad565b6102a06105d236600461338b565b611cec565b6102a06105e5366004612dc2565b611dc2565b6102a06105f8366004612f77565b611e69565b6102a061060b3660046133b5565b611f23565b61062361061e366004612dc2565b611f73565b6040516102bf989796959493929190613428565b6006546102dc90600160a01b900460ff1681565b6102dc610659366004613460565b6001600160a01b039182166000908152600d6020908152604080832093909416825291909152205460ff1690565b6102a0611fcc565b6102a061069d36600461348a565b612005565b6102a06106b03660046132db565b61208c565b6102a0612127565b6006546104cc906001600160a01b031681565b6000546001600160a01b031633146107035760405162461bcd60e51b81526004016106fa906134ee565b60405180910390fd5b600083815260016020908152604080832085845282529182902083905581518581529081018490529081018290527fc80ec7883fb544f8a6d1b7f784ca54fbd279fddd829bad4a012c66bd49e90cbd9060600160405180910390a1505050565b60006001600160a01b0383166107cf5760405162461bcd60e51b815260206004820152602b60248201527f455243313135353a2062616c616e636520717565727920666f7220746865207a60448201526a65726f206164647265737360a81b60648201526084016106fa565b506000818152600c602090815260408083206001600160a01b03861684529091529020545b92915050565b60006001600160e01b0319821663d5497c4d60e01b14806107f457506107f482612160565b6000546001600160a01b031633146108495760405162461bcd60e51b81526004016106fa906134ee565b610852816121bb565b7fbabd00c52f3ac8b66511ad0c5d9680f0417ad32bf6c8fede4cb2d45820353bc5816040516108819190612e21565b60405180910390a150565b6000546001600160a01b031633146108b65760405162461bcd60e51b81526004016106fa906134ee565b8385106108f65760405162461bcd60e51b815260206004820152600e60248201526d57726f6e672074696d656c696e6560901b60448201526064016106fa565b426005898154811061090a5761090a613523565b906000526020600020906008020160020154116109695760405162461bcd60e51b815260206004820152601c60248201527f4576656e7420697320616c726561647920696e2070726f67726573730000000060448201526064016106fa565b866005898154811061097d5761097d613523565b90600052602060002090600802016000018190555085600589815481106109a6576109a6613523565b90600052602060002090600802016001018190555084600589815481106109cf576109cf613523565b90600052602060002090600802016002018190555083600589815481106109f8576109f8613523565b9060005260206000209060080201600301819055508260058981548110610a2157610a21613523565b9060005260206000209060080201600401819055508160058981548110610a4a57610a4a613523565b9060005260206000209060080201600601819055508060058981548110610a7357610a73613523565b906000526020600020906008020160070160006101000a81548160ff0219169083151502179055507f7b06d599f3f3c5c2b5644fa6ff299230dcbe3e7aaace5bbfdebe4a40669201768888888888888888604051610ad8989796959493929190613428565b60405180910390a15050505050505050565b6000818152601060205260409020805460609190610b0790613539565b159050610bac5760008281526010602052604090208054610b2790613539565b80601f0160208091040260200160405190810160405280929190818152602001828054610b5390613539565b8015610ba05780601f10610b7557610100808354040283529160200191610ba0565b820191906000526020600020905b815481529060010190602001808311610b8357829003601f168201915b50505050509050919050565b6107f4826121cb565b600f546001600160a01b03163314610bdf5760405162461bcd60e51b81526004016106fa90613573565b801515600f60149054906101000a900460ff16151503610c2f5760405162461bcd60e51b815260206004820152600b60248201526a105b1c9958591e481cd95d60aa1b60448201526064016106fa565b600f8054911515600160a01b0260ff60a01b19909216919091179055565b6000546001600160a01b03163314610c775760405162461bcd60e51b81526004016106fa906134ee565b610c9d83838360405180604001604052806002815260200161060f60f31b8152506121da565b505050565b6000546001600160a01b03163314610ccc5760405162461bcd60e51b81526004016106fa906134ee565b828114610d0f5760405162461bcd60e51b8152602060048201526011602482015270082e4e4c2f2e640c8dedce840dac2e8c6d607b1b60448201526064016106fa565b6000805b82811015610d5357838382818110610d2d57610d2d613523565b9050602002013582610d3f91906135af565b915080610d4b816135c2565b915050610d13565b50612710811115610d9d5760405162461bcd60e51b81526020600482015260146024820152730546f74616c20736861726573203e2031303030360641b60448201526064016106fa565b610da960096000612b69565b60005b84811015610e675760096040518060400160405280888885818110610dd357610dd3613523565b9050602002016020810190610de891906132db565b6001600160a01b03168152602001868685818110610e0857610e08613523565b60209081029290920135909252835460018082018655600095865294829020845160029092020180546001600160a01b0319166001600160a01b0390921691909117815592015191909201555080610e5f816135c2565b915050610dac565b505050505050565b6000546001600160a01b03163314610e995760405162461bcd60e51b81526004016106fa906134ee565b6000828152601060205260409020610c9d8282613621565b600f546001600160a01b03163314610c775760405162461bcd60e51b81526004016106fa90613573565b6000806000600660149054906101000a900460ff1615610f49576000858152600860205260408120549003610f2c5761271060075485610f1b91906136e0565b610f2591906136f7565b9050610f4d565b60008581526008602052604090205461271090610f1b90866136e0565b5060005b600b546001600160a01b0316925090505b9250929050565b6000546001600160a01b03163314610f8f5760405162461bcd60e51b81526004016106fa906134ee565b60058281548110610fa257610fa2613523565b600091825260209091206007600890920201015460ff16610ffc5760405162461bcd60e51b81526020600482015260146024820152734576656e74206973206e6f74207072697661746560601b60448201526064016106fa565b6001600160a01b0381166000818152600460209081526040808320868452825291829020805460ff191660011790558151858152908101929092527f2279719af4080e08a5a2b25c8234a83b76079141524127d1096409ac07fa5d0f91015b60405180910390a15050565b6001600160a01b03851633148061108357506110838533610659565b6110ea5760405162461bcd60e51b815260206004820152603260248201527f455243313135353a207472616e736665722063616c6c6572206973206e6f74206044820152711bdddb995c881b9bdc88185c1c1c9bdd995960721b60648201526084016106fa565b6110f785858585856122b2565b5050505050565b6000546001600160a01b031633146111285760405162461bcd60e51b81526004016106fa906134ee565b6006805460ff60a81b1916600160a81b179055565b6060600a6000838152602001908152602001600020805480602002602001604051908101604052809291908181526020016000905b828210156111ba576000848152602090819020604080518082019091526002850290910180546001600160a01b03168252600190810154828401529083529092019101611172565b505050509050919050565b6060815183511461122a5760405162461bcd60e51b815260206004820152602960248201527f455243313135353a206163636f756e747320616e6420696473206c656e677468604482015268040dad2e6dac2e8c6d60bb1b60648201526084016106fa565b600083516001600160401b0381111561124557611245612c5b565b60405190808252806020026020018201604052801561126e578160200160208202803683370190505b50905060005b84518110156112e6576112b985828151811061129257611292613523565b60200260200101518583815181106112ac576112ac613523565b6020026020010151610763565b8282815181106112cb576112cb613523565b60209081029190910101526112df816135c2565b9050611274565b509392505050565b6000546001600160a01b031633146113185760405162461bcd60e51b81526004016106fa906134ee565b83821461135b5760405162461bcd60e51b8152602060048201526011602482015270082e4e4c2f2e640c8dedce840dac2e8c6d607b1b60448201526064016106fa565b6000805b8381101561139f5784848281811061137957611379613523565b905060200201358261138b91906135af565b915080611397816135c2565b91505061135f565b506127108111156113e95760405162461bcd60e51b81526020600482015260146024820152730546f74616c20736861726573203e2031303030360641b60448201526064016106fa565b6000828152600a6020526040812061140091612b69565b60005b858110156114cf57600a6000848152602001908152602001600020604051806040016040528089898581811061143b5761143b613523565b905060200201602081019061145091906132db565b6001600160a01b0316815260200187878581811061147057611470613523565b60209081029290920135909252835460018082018655600095865294829020845160029092020180546001600160a01b0319166001600160a01b03909216919091178155920151919092015550806114c7816135c2565b915050611403565b50505050505050565b6000546001600160a01b031633146115025760405162461bcd60e51b81526004016106fa906134ee565b600680546001600160a01b0319166001600160a01b0383169081179091556040519081527f8245c70d6f9e34608dfb2d36bd59f3a78ea793b0fe9f892d32c7937795e20d5790602001610881565b600f546001600160a01b0316331461157a5760405162461bcd60e51b81526004016106fa90613573565b61158684848484612457565b50505050565b6000546001600160a01b031633146115b65760405162461bcd60e51b81526004016106fa906134ee565b8385106115f65760405162461bcd60e51b815260206004820152600e60248201526d57726f6e672074696d656c696e6560901b60448201526064016106fa565b6040805161010081018252888152602081018881529181018781526060820187815260808301878152600060a0850181815260c0860189815288151560e0880190815260058054600180820183559582905298517f036b6384b5eca791c62761152d0c79bb0604c104a5fb6f4eb0703f3154bb3db06008909a02998a015598517f036b6384b5eca791c62761152d0c79bb0604c104a5fb6f4eb0703f3154bb3db189015595517f036b6384b5eca791c62761152d0c79bb0604c104a5fb6f4eb0703f3154bb3db288015593517f036b6384b5eca791c62761152d0c79bb0604c104a5fb6f4eb0703f3154bb3db387015591517f036b6384b5eca791c62761152d0c79bb0604c104a5fb6f4eb0703f3154bb3db486015590517f036b6384b5eca791c62761152d0c79bb0604c104a5fb6f4eb0703f3154bb3db585015590517f036b6384b5eca791c62761152d0c79bb0604c104a5fb6f4eb0703f3154bb3db684015590517f036b6384b5eca791c62761152d0c79bb0604c104a5fb6f4eb0703f3154bb3db7909201805460ff19169215159290921790915590547fe835538a46df8cd7ff47df55864c0898e9c41b8a4ba5996d9a757977c3397548916117bb91613719565b888888888888886040516117d6989796959493929190613428565b60405180910390a150505050505050565b6000546001600160a01b031633146118115760405162461bcd60e51b81526004016106fa906134ee565b61181b6000612566565b565b6000806000806005858154811061183657611836613523565b6000918252602080832060066008909302019190910154878352600180835260408085208c86529093529190922054919250901561188b5760008681526001602090815260408083208b845290915290205491505b6005868154811061189e5761189e613523565b600091825260209091206007600890920201015460ff1680156118e557506001600160a01b038916600090815260046020908152604080832089845290915290205460ff16155b806119405750600586815481106118fe576118fe613523565b90600052602060002090600802016002015442108061194057506005868154811061192b5761192b613523565b90600052602060002090600802016003015442115b806119cd57506005868154811061195957611959613523565b9060005260206000209060080201600401546000141580156119cd57506005868154811061198957611989613523565b90600052602060002090600802016004015487600588815481106119af576119af613523565b9060005260206000209060080201600501546119cb91906135af565b115b80611a545750600586815481106119e6576119e6613523565b906000526020600020906008020160000154600014158015611a54575060058681548110611a1657611a16613523565b600091825260208083206008909202909101548883526002825260408084206001600160a01b038e168552909252912054611a529089906135af565b115b80611ae7575060058681548110611a6d57611a6d613523565b906000526020600020906008020160000154600014158015611ae7575060058681548110611a9d57611a9d613523565b60009182526020808320600160089093020191909101548883526003825260408084208c855283528084206001600160a01b038e168552909252912054611ae59089906135af565b115b15611af0575060005b60065491996001600160a01b0390921698509650945050505050565b6000546001600160a01b03163314611b365760405162461bcd60e51b81526004016106fa906134ee565b6001600160a01b038116611b815760405162461bcd60e51b815260206004820152601260248201527143616e74207365742030206164647265737360701b60448201526064016106fa565b600b546001600160a01b0390811690821603611bea5760405162461bcd60e51b815260206004820152602260248201527f54686973206164647265737320697320616c726561647920612072656365697660448201526132b960f11b60648201526084016106fa565b600b80546001600160a01b0319166001600160a01b0383169081179091556040519081527fc3ba39d4d4430b9233da8c5c7ebb03a0fc4d391239234c0f65539f78c29cdbdf90602001610881565b60606009805480602002602001604051908101604052809291908181526020016000905b82821015611ca4576000848152602090819020604080518082019091526002850290910180546001600160a01b03168252600190810154828401529083529092019101611c5c565b50505050905090565b6000546001600160a01b03163314611cd75760405162461bcd60e51b81526004016106fa906134ee565b6006805460ff60a01b1916600160a01b179055565b6001600160a01b0382163303611d565760405162461bcd60e51b815260206004820152602960248201527f455243313135353a2073657474696e6720617070726f76616c20737461747573604482015268103337b91039b2b63360b91b60648201526084016106fa565b336000818152600d602090815260408083206001600160a01b03871680855290835292819020805460ff191686151590811790915590519081529192917f17307eab39ab6107e8899845ad3d59bd9653f200f220920489ca2b5937696c31910160405180910390a35050565b6000546001600160a01b03163314611dec5760405162461bcd60e51b81526004016106fa906134ee565b612328811115611e345760405162461bcd60e51b8152602060048201526013602482015272526f79616c7479206973206f7665722039302560681b60448201526064016106fa565b60078190556040518181527f744bd09508b8f746db592deb84a07d3aa456cd09070215ddbe490b779b8245e190602001610881565b6000546001600160a01b03163314611e935760405162461bcd60e51b81526004016106fa906134ee565b612328821115611edb5760405162461bcd60e51b8152602060048201526013602482015272526f79616c7479206973206f7665722039302560681b60448201526064016106fa565b60008181526008602090815260409182902084905581518481529081018390527fa21fe1d3b6ce635d755ef2ab314501a111f243a34ba8902b57dd61c106db948b910161105b565b6000546001600160a01b03163314611f4d5760405162461bcd60e51b81526004016106fa906134ee565b610c9d83838360405180604001604052806002815260200161060f60f31b8152506125b6565b60058181548110611f8357600080fd5b6000918252602090912060089091020180546001820154600283015460038401546004850154600586015460068701546007909701549597509395929491939092909160ff1688565b6000546001600160a01b03163314611ff65760405162461bcd60e51b81526004016106fa906134ee565b6006805460ff60a01b19169055565b6001600160a01b03851633148061202157506120218533610659565b61207f5760405162461bcd60e51b815260206004820152602960248201527f455243313135353a2063616c6c6572206973206e6f74206f776e6572206e6f7260448201526808185c1c1c9bdd995960ba1b60648201526084016106fa565b6110f78585858585612711565b6000546001600160a01b031633146120b65760405162461bcd60e51b81526004016106fa906134ee565b6001600160a01b03811661211b5760405162461bcd60e51b815260206004820152602660248201527f4f776e61626c653a206e6577206f776e657220697320746865207a65726f206160448201526564647265737360d01b60648201526084016106fa565b61212481612566565b50565b6000546001600160a01b031633146121515760405162461bcd60e51b81526004016106fa906134ee565b6006805460ff60a81b19169055565b60006001600160e01b0319821663152a902d60e11b148061219157506001600160e01b0319821663155c914760e31b145b806121ac57506001600160e01b03198216631189900560e11b145b806107f457506107f482612829565b600e6121c78282613621565b5050565b6060600e8054610b2790613539565b6001600160a01b0384166122005760405162461bcd60e51b81526004016106fa9061372c565b336122208160008761221188612879565b61221a88612879565b876128c4565b6000848152600c602090815260408083206001600160a01b0389168452909152812080548592906122529084906135af565b909155505060408051858152602081018590526001600160a01b0380881692600092918516917fc3d58168c5ae7397731d063d5bbf3d657854427343f4c083240f7aacaa2d0f62910160405180910390a46110f781600087878787612953565b81518351146122d35760405162461bcd60e51b81526004016106fa9061376d565b6001600160a01b0384166122f95760405162461bcd60e51b81526004016106fa906137b5565b336123088187878787876128c4565b60005b84518110156123f157600085828151811061232857612328613523565b60200260200101519050600085838151811061234657612346613523565b6020908102919091018101516000848152600c835260408082206001600160a01b038e1683529093529190912054909150818110156123975760405162461bcd60e51b81526004016106fa906137fa565b6000838152600c602090815260408083206001600160a01b038e8116855292528083208585039055908b168252812080548492906123d69084906135af565b92505081905550505050806123ea906135c2565b905061230b565b50846001600160a01b0316866001600160a01b0316826001600160a01b03167f4a39dc06d4c0dbc64b70af90fd698a233a518aa5d07e595d983b8c0526c8f7fb8787604051612441929190613844565b60405180910390a4610e67818787878787612aae565b6005818154811061246a5761246a613523565b9060005260206000209060080201600001546000146125275760008181526002602090815260408083206001600160a01b0388168452909152812080548492906124b59084906135af565b909155505060058054829081106124ce576124ce613523565b90600052602060002090600802016001015460001461252757600081815260036020908152604080832086845282528083206001600160a01b0388168452909152812080548492906125219084906135af565b90915550505b816005828154811061253b5761253b613523565b9060005260206000209060080201600501600082825461255b91906135af565b909155505050505050565b600080546001600160a01b038381166001600160a01b0319831681178455604051919092169283917f8be0079c531659141344cd1fd0a4f28419497f9722a3daafe3b4186f6b6457e09190a35050565b6001600160a01b0384166125dc5760405162461bcd60e51b81526004016106fa9061372c565b81518351146125fd5760405162461bcd60e51b81526004016106fa9061376d565b3361260d816000878787876128c4565b60005b84518110156126a95783818151811061262b5761262b613523565b6020026020010151600c600087848151811061264957612649613523565b602002602001015181526020019081526020016000206000886001600160a01b03166001600160a01b03168152602001908152602001600020600082825461269191906135af565b909155508190506126a1816135c2565b915050612610565b50846001600160a01b031660006001600160a01b0316826001600160a01b03167f4a39dc06d4c0dbc64b70af90fd698a233a518aa5d07e595d983b8c0526c8f7fb87876040516126fa929190613844565b60405180910390a46110f781600087878787612aae565b6001600160a01b0384166127375760405162461bcd60e51b81526004016106fa906137b5565b3361274781878761221188612879565b6000848152600c602090815260408083206001600160a01b038a1684529091529020548381101561278a5760405162461bcd60e51b81526004016106fa906137fa565b6000858152600c602090815260408083206001600160a01b038b81168552925280832087850390559088168252812080548692906127c99084906135af565b909155505060408051868152602081018690526001600160a01b03808916928a821692918616917fc3d58168c5ae7397731d063d5bbf3d657854427343f4c083240f7aacaa2d0f62910160405180910390a46114cf828888888888612953565b60006001600160e01b03198216636cdb3d1360e11b148061285a57506001600160e01b031982166303a24d0760e21b145b806107f457506301ffc9a760e01b6001600160e01b03198316146107f4565b604080516001808252818301909252606091600091906020808301908036833701905050905082816000815181106128b3576128b3613523565b602090810291909101015292915050565b600f54600090600160a01b900460ff1615806128df57503332145b806128f45750600f546001600160a01b031633145b9050806114cf5760405162461bcd60e51b815260206004820152602760248201527f5265737472696374656420746f2044656372797074206d61726b6574706c616360448201526665206f6e6c792160c81b60648201526084016106fa565b6001600160a01b0384163b15610e675760405163f23a6e6160e01b81526001600160a01b0385169063f23a6e61906129979089908990889088908890600401613872565b6020604051808303816000875af19250505080156129d2575060408051601f3d908101601f191682019092526129cf918101906138b7565b60015b612a7e576129de6138d4565b806308c379a003612a1757506129f26138f0565b806129fd5750612a19565b8060405162461bcd60e51b81526004016106fa9190612e21565b505b60405162461bcd60e51b815260206004820152603460248201527f455243313135353a207472616e7366657220746f206e6f6e20455243313135356044820152732932b1b2b4bb32b91034b6b83632b6b2b73a32b960611b60648201526084016106fa565b6001600160e01b0319811663f23a6e6160e01b146114cf5760405162461bcd60e51b81526004016106fa90613979565b6001600160a01b0384163b15610e675760405163bc197c8160e01b81526001600160a01b0385169063bc197c8190612af290899089908890889088906004016139c1565b6020604051808303816000875af1925050508015612b2d575060408051601f3d908101601f19168201909252612b2a918101906138b7565b60015b612b39576129de6138d4565b6001600160e01b0319811663bc197c8160e01b146114cf5760405162461bcd60e51b81526004016106fa90613979565b508054600082556002029060005260206000209081019061212491905b80821115612bab5780546001600160a01b031916815560006001820155600201612b86565b5090565b600080600060608486031215612bc457600080fd5b505081359360208301359350604090920135919050565b80356001600160a01b0381168114612bf257600080fd5b919050565b60008060408385031215612c0a57600080fd5b612c1383612bdb565b946020939093013593505050565b6001600160e01b03198116811461212457600080fd5b600060208284031215612c4957600080fd5b8135612c5481612c21565b9392505050565b634e487b7160e01b600052604160045260246000fd5b601f8201601f191681016001600160401b0381118282101715612c9657612c96612c5b565b6040525050565b600082601f830112612cae57600080fd5b81356001600160401b03811115612cc757612cc7612c5b565b604051612cde601f8301601f191660200182612c71565b818152846020838601011115612cf357600080fd5b816020850160208301376000918101602001919091529392505050565b600060208284031215612d2257600080fd5b81356001600160401b03811115612d3857600080fd5b612d4484828501612c9d565b949350505050565b80358015158114612bf257600080fd5b600080600080600080600080610100898b031215612d7957600080fd5b883597506020890135965060408901359550606089013594506080890135935060a0890135925060c08901359150612db360e08a01612d4c565b90509295985092959890939650565b600060208284031215612dd457600080fd5b5035919050565b6000815180845260005b81811015612e0157602081850181015186830182015201612de5565b506000602082860101526020601f19601f83011685010191505092915050565b602081526000612c546020830184612ddb565b600060208284031215612e4657600080fd5b612c5482612d4c565b600080600060608486031215612e6457600080fd5b612e6d84612bdb565b95602085013595506040909401359392505050565b60008083601f840112612e9457600080fd5b5081356001600160401b03811115612eab57600080fd5b6020830191508360208260051b8501011115610f5e57600080fd5b60008060008060408587031215612edc57600080fd5b84356001600160401b0380821115612ef357600080fd5b612eff88838901612e82565b90965094506020870135915080821115612f1857600080fd5b50612f2587828801612e82565b95989497509550505050565b60008060408385031215612f4457600080fd5b8235915060208301356001600160401b03811115612f6157600080fd5b612f6d85828601612c9d565b9150509250929050565b60008060408385031215612f8a57600080fd5b50508035926020909101359150565b60008060408385031215612fac57600080fd5b82359150612fbc60208401612bdb565b90509250929050565b60006001600160401b03821115612fde57612fde612c5b565b5060051b60200190565b600082601f830112612ff957600080fd5b8135602061300682612fc5565b6040516130138282612c71565b83815260059390931b850182019282810191508684111561303357600080fd5b8286015b8481101561304e5780358352918301918301613037565b509695505050505050565b600080600080600060a0868803121561307157600080fd5b61307a86612bdb565b945061308860208701612bdb565b935060408601356001600160401b03808211156130a457600080fd5b6130b089838a01612fe8565b945060608801359150808211156130c657600080fd5b6130d289838a01612fe8565b935060808801359150808211156130e857600080fd5b506130f588828901612c9d565b9150509295509295909350565b602080825282518282018190526000919060409081850190868401855b8281101561314d57815180516001600160a01b0316855286015186850152928401929085019060010161311f565b5091979650505050505050565b6000806040838503121561316d57600080fd5b82356001600160401b038082111561318457600080fd5b818501915085601f83011261319857600080fd5b813560206131a582612fc5565b6040516131b28282612c71565b83815260059390931b85018201928281019150898411156131d257600080fd5b948201945b838610156131f7576131e886612bdb565b825294820194908201906131d7565b9650508601359250508082111561320d57600080fd5b50612f6d85828601612fe8565b600081518084526020808501945080840160005b8381101561324a5781518752958201959082019060010161322e565b509495945050505050565b602081526000612c54602083018461321a565b60008060008060006060868803121561328057600080fd5b85356001600160401b038082111561329757600080fd5b6132a389838a01612e82565b909750955060208801359150808211156132bc57600080fd5b506132c988828901612e82565b96999598509660400135949350505050565b6000602082840312156132ed57600080fd5b612c5482612bdb565b6000806000806080858703121561330c57600080fd5b61331585612bdb565b966020860135965060408601359560600135945092505050565b600080600080600080600060e0888a03121561334a57600080fd5b873596506020880135955060408801359450606088013593506080880135925060a0880135915061337d60c08901612d4c565b905092959891949750929550565b6000806040838503121561339e57600080fd5b6133a783612bdb565b9150612fbc60208401612d4c565b6000806000606084860312156133ca57600080fd5b6133d384612bdb565b925060208401356001600160401b03808211156133ef57600080fd5b6133fb87838801612fe8565b9350604086013591508082111561341157600080fd5b5061341e86828701612fe8565b9150509250925092565b978852602088019690965260408701949094526060860192909252608085015260a084015260c0830152151560e08201526101000190565b6000806040838503121561347357600080fd5b61347c83612bdb565b9150612fbc60208401612bdb565b600080600080600060a086880312156134a257600080fd5b6134ab86612bdb565b94506134b960208701612bdb565b9350604086013592506060860135915060808601356001600160401b038111156134e257600080fd5b6130f588828901612c9d565b6020808252818101527f4f776e61626c653a2063616c6c6572206973206e6f7420746865206f776e6572604082015260600190565b634e487b7160e01b600052603260045260246000fd5b600181811c9082168061354d57607f821691505b60208210810361356d57634e487b7160e01b600052602260045260246000fd5b50919050565b6020808252600c908201526b155b985d5d1a1bdc9a5e995960a21b604082015260600190565b634e487b7160e01b600052601160045260246000fd5b808201808211156107f4576107f4613599565b6000600182016135d4576135d4613599565b5060010190565b601f821115610c9d57600081815260208120601f850160051c810160208610156136025750805b601f850160051c820191505b81811015610e675782815560010161360e565b81516001600160401b0381111561363a5761363a612c5b565b61364e816136488454613539565b846135db565b602080601f831160018114613683576000841561366b5750858301515b600019600386901b1c1916600185901b178555610e67565b600085815260208120601f198616915b828110156136b257888601518255948401946001909101908401613693565b50858210156136d05787850151600019600388901b60f8161c191681555b5050505050600190811b01905550565b80820281158282048414176107f4576107f4613599565b60008261371457634e487b7160e01b600052601260045260246000fd5b500490565b818103818111156107f4576107f4613599565b60208082526021908201527f455243313135353a206d696e7420746f20746865207a65726f206164647265736040820152607360f81b606082015260800190565b60208082526028908201527f455243313135353a2069647320616e6420616d6f756e7473206c656e677468206040820152670dad2e6dac2e8c6d60c31b606082015260800190565b60208082526025908201527f455243313135353a207472616e7366657220746f20746865207a65726f206164604082015264647265737360d81b606082015260800190565b6020808252602a908201527f455243313135353a20696e73756666696369656e742062616c616e636520666f60408201526939103a3930b739b332b960b11b606082015260800190565b604081526000613857604083018561321a565b8281036020840152613869818561321a565b95945050505050565b6001600160a01b03868116825285166020820152604081018490526060810183905260a0608082018190526000906138ac90830184612ddb565b979650505050505050565b6000602082840312156138c957600080fd5b8151612c5481612c21565b600060033d11156138ed5760046000803e5060005160e01c5b90565b600060443d10156138fe5790565b6040516003193d81016004833e81513d6001600160401b03816024840111818411171561392d57505050505090565b82850191508151818111156139455750505050505090565b843d870101602082850101111561395f5750505050505090565b61396e60208286010187612c71565b509095945050505050565b60208082526028908201527f455243313135353a204552433131353552656365697665722072656a656374656040820152676420746f6b656e7360c01b606082015260800190565b6001600160a01b0386811682528516602082015260a0604082018190526000906139ed9083018661321a565b82810360608401526139ff818661321a565b90508281036080840152613a138185612ddb565b9897505050505050505056fea2646970667358221220a15d90e5a428f5a1f82b4b91a9ed7718f4d61b55cfa4a988488397cf6005926e64736f6c63430008110033",
	"linkReferences": {},
	"deployedLinkReferences": {}
}